{
	"data": {
		"bytecode": {
			"linkReferences": {},
			"object": "60806040526001600c5534801561001557600080fd5b5061301e806100256000396000f3fe608060405234801561001057600080fd5b50600436106101e55760003560e01c80639010d07c1161010f578063c2fb8523116100a2578063ef378f6211610071578063ef378f62146103bf578063f36c8f5c146103e3578063f7d3b6e5146103eb578063fe9efb2a146103fe576101e5565b8063c2fb85231461037e578063ca15c87314610391578063d547741f146103a4578063ddca3f43146103b7576101e5565b8063acab1aca116100de578063acab1aca14610346578063b227f3be1461035b578063b69ef8a81461036e578063c2939d9714610376576101e5565b80639010d07c1461030057806390e9ca7f1461031357806391d1485414610326578063a217fddf1461023b576101e5565b8063536562bb116101875780637400f4cc116101565780637400f4cc146102ca5780637adbf973146102dd5780637dc0d1d0146102f0578063851b16f5146102f8576101e5565b8063536562bb1461027e578063565a2c4a146102915780636133f985146102a457806373d160a2146102b7576101e5565b80633d14319d116101c35780633d14319d1461023b5780634665096d146102435780634f7428371461024b578063508954f81461026b576101e5565b8063248a9ca3146101ea5780632f2ff15d1461021357806336568abe14610228575b600080fd5b6101fd6101f83660046128b7565b610423565b60405161020a9190612b7d565b60405180910390f35b6102266102213660046128cf565b61043b565b005b6102266102363660046128cf565b6104a2565b6101fd610503565b6101fd610508565b61025e6102593660046128b7565b61050e565b60405161020a9190612b45565b6102266102793660046128b7565b610529565b61025e61028c3660046128b7565b610581565b6101fd61029f366004612965565b61059c565b6102266102b2366004612862565b6105bf565b61025e6102c53660046128b7565b610712565b6101fd6102d83660046129a5565b61072d565b6102266102eb366004612848565b61075d565b61025e6107af565b6102266107be565b61025e61030e366004612944565b6109f8565b610226610321366004612848565b610a17565b6103396103343660046128cf565b610b88565b60405161020a9190612b72565b61034e610ba0565b60405161020a9190612c08565b610226610369366004612848565b610cb7565b6101fd610d51565b6101fd610e46565b61022661038c3660046128fa565b610e4c565b6101fd61039f3660046128b7565b611021565b6102266103b23660046128cf565b611038565b6101fd611091565b6103d26103cd366004612848565b611097565b60405161020a959493929190612b86565b6101fd61126b565b6101fd6103f9366004612965565b61128f565b61041161040c366004612848565b611585565b60405161020a96959493929190612c1b565b6000818152604060208190529020600201545b919050565b6000828152604060208190529020600201546104599061033461182c565b6104945760405162461bcd60e51b815260040180806020018281038252602f815260200180612ee2602f913960400191505060405180910390fd5b61049e8282611830565b5050565b6104aa61182c565b6001600160a01b0316816001600160a01b0316146104f95760405162461bcd60e51b815260040180806020018281038252602f815260200180612fba602f913960400191505060405180910390fd5b61049e8282611899565b600081565b60035481565b6006602052600090815260409020546001600160a01b031681565b7f35a7846a2a701fff6f9d61a46ebff5da578c5dcee8bdf361c569f9ea4ee647716105568161033461182c565b61057b5760405162461bcd60e51b815260040161057290612d16565b60405180910390fd5b50600155565b6007602052600090815260409020546001600160a01b031681565b600082826040516105ae929190612b19565b604051809103902090505b92915050565b600854610100900460ff16806105d857506105d8611902565b806105e6575060085460ff16155b6106215760405162461bcd60e51b815260040180806020018281038252602e815260200180612f64602e913960400191505060405180910390fd5b600854610100900460ff1615801561064c576008805460ff1961ff0019909116610100171660011790555b610669730b9d5d9136855f6fec3c0993fee6e9ce8a297846611913565b61067283611935565b6001829055662386f26fc100006002556103844201600355610692611957565b61069a611957565b6106a5600085610494565b6106cf7f35a7846a2a701fff6f9d61a46ebff5da578c5dcee8bdf361c569f9ea4ee6477185610494565b6106fa7f35a7846a2a701fff6f9d61a46ebff5da578c5dcee8bdf361c569f9ea4ee6477160006119f8565b801561070c576008805461ff00191690555b50505050565b6005602052600090815260409020546001600160a01b031681565b6000816040516020016107409190612b29565b604051602081830303815290604052805190602001209050919050565b7f35a7846a2a701fff6f9d61a46ebff5da578c5dcee8bdf361c569f9ea4ee6477161078a8161033461182c565b6107a65760405162461bcd60e51b815260040161057290612d16565b61049e82611935565b6000546001600160a01b031681565b6000600460006107cc61182c565b6001600160a01b03166001600160a01b031681526020019081526020016000206040518060a001604052908160008201548152602001600182018054600181600116156101000203166002900480601f01602080910402602001604051908101604052809291908181526020018280546001816001161561010002031660029004801561089a5780601f1061086f5761010080835404028352916020019161089a565b820191906000526020600020905b81548152906001019060200180831161087d57829003601f168201915b5050509183525050600282810180546040805160206001841615610100026000190190931694909404601f8101839004830285018301909152808452938101939083018282801561092c5780601f106109015761010080835404028352916020019161092c565b820191906000526020600020905b81548152906001019060200180831161090f57829003601f168201915b5050509183525050600382015460ff16151560208083019190915260048301805460408051601f600260001960018616156101000201909416939093049283018590048502810185018252828152940193928301828280156109cf5780601f106109a4576101008083540402835291602001916109cf565b820191906000526020600020905b8154815290600101906020018083116109b257829003601f168201915b50505050508152505090506109f5816000015160025463c2fb852360e01b600354611a4a565b50565b6000828152604060208190528120610a109083611b53565b9392505050565b7f35a7846a2a701fff6f9d61a46ebff5da578c5dcee8bdf361c569f9ea4ee64771610a448161033461182c565b610a605760405162461bcd60e51b815260040161057290612d16565b6000610a6a611b5f565b9050806001600160a01b031663a9059cbb84836001600160a01b03166370a08231306040518263ffffffff1660e01b8152600401610aa89190612b45565b60206040518083038186803b158015610ac057600080fd5b505afa158015610ad4573d6000803e3d6000fd5b505050506040513d601f19601f82011682018060405250810190610af89190612ab8565b6040518363ffffffff1660e01b8152600401610b15929190612b59565b602060405180830381600087803b158015610b2f57600080fd5b505af1158015610b43573d6000803e3d6000fd5b505050506040513d601f19601f82011682018060405250810190610b67919061289d565b610b835760405162461bcd60e51b815260040161057290612e16565b505050565b6000828152604060208190528120610a109083611b6e565b6060600060046000610bb061182c565b6001600160a01b031681526020810191909152604001600020549050610bd581611b83565b610bde81611ba0565b151560011415610ca25760046000610bf461182c565b6001600160a01b0316815260208082019290925260409081016000206004018054825160026001831615610100026000190190921691909104601f810185900485028201850190935282815292909190830182828015610c955780601f10610c6a57610100808354040283529160200191610c95565b820191906000526020600020905b815481529060010190602001808311610c7857829003601f168201915b5050505050915050610cb4565b50506040805160208101909152600081525b90565b7f35a7846a2a701fff6f9d61a46ebff5da578c5dcee8bdf361c569f9ea4ee64771610ce48161033461182c565b610d005760405162461bcd60e51b815260040161057290612d16565b6001600160a01b038216600090815260046020526040812081815590610d296001830182612662565b610d37600283016000612662565b60038201805460ff1916905561070c600483016000612662565b60007f35a7846a2a701fff6f9d61a46ebff5da578c5dcee8bdf361c569f9ea4ee64771610d808161033461182c565b610d9c5760405162461bcd60e51b815260040161057290612d16565b6000610da6611b5f565b6040517f70a082310000000000000000000000000000000000000000000000000000000081529091506001600160a01b038216906370a0823190610dee903090600401612b45565b60206040518083038186803b158015610e0657600080fd5b505afa158015610e1a573d6000803e3d6000fd5b505050506040513d601f19601f82011682018060405250810190610e3e9190612ab8565b9250505b5090565b60015481565b6000838152600d602052604090205483906001600160a01b03163314610ea35760405162461bcd60e51b8152600401808060200182810382526028815260200180612f926028913960400191505060405180910390fd5b6000818152600d602052604080822080546001600160a01b03191690555182917f7cc135e0cebb02c3480ae5d74d377283180a2601f8f644edf7987b009316c63a91a26000848152600560205260409020546001600160a01b03166064831115610fb0576001600160a01b038116600090815260046020819052604090912060038101805460ff19166001179055610f3d910185856126a6565b50610f49818585611c15565b6000858152600560205260409081902080546001600160a01b0319169055516001600160a01b038216907f5558dd1c153e0c1f8c80798aeed4e67944c9f61b4b21fc582570130a778a964a90610fa29087908790612bd9565b60405180910390a25061070c565b6001600160a01b0381166000908152600460205260408120610fd791600190910190612662565b806001600160a01b03167f365b5ceb998ce6cd2a94807ad133912878efb4835f3fa8ae003bf75529c7af3b8585604051611012929190612bd9565b60405180910390a25050505050565b60008181526040602081905281206105b990611cdb565b6000828152604060208190529020600201546110569061033461182c565b6104f95760405162461bcd60e51b8152600401808060200182810382526030815260200180612f346030913960400191505060405180910390fd5b60025481565b6004602090815260009182526040918290208054600180830180548651600293821615610100026000190190911692909204601f8101869004860283018601909652858252919492939092908301828280156111345780601f1061110957610100808354040283529160200191611134565b820191906000526020600020905b81548152906001019060200180831161111757829003601f168201915b50505060028085018054604080516020601f60001961010060018716150201909416959095049283018590048502810185019091528181529596959450909250908301828280156111c65780601f1061119b576101008083540402835291602001916111c6565b820191906000526020600020905b8154815290600101906020018083116111a957829003601f168201915b50505050600383015460048401805460408051602060026101006001861615026000190190941693909304601f8101849004840282018401909252818152959660ff90941695939450908301828280156112615780601f1061123657610100808354040283529160200191611261565b820191906000526020600020905b81548152906001019060200180831161124457829003601f168201915b5050505050905085565b7f35a7846a2a701fff6f9d61a46ebff5da578c5dcee8bdf361c569f9ea4ee6477181565b60006004600061129d61182c565b6001600160a01b0316815260208101919091526040016000206003015460ff16156112da5760405162461bcd60e51b815260040161057290612cdf565b82828080601f0160208091040260200160405190810160405280939291908181526020018383808284376000920182905250925061131b915083905061072d565b6000818152600660205260409020549091506001600160a01b0316156113535760405162461bcd60e51b815260040161057290612daa565b60006113696001543063c2fb852360e01b611ce6565b90506113e46040518060400160405280601081526020017f747769747465725f757365726e616d650000000000000000000000000000000081525087878080601f016020809104026020016040519081016040528093929190818152602001838380828437600092019190915250869493925050611d0b9050565b61144d6040518060400160405280600d81526020017f616464726573735f62797465730000000000000000000000000000000000000081525061142561182c565b6040516020016114359190612afc565b60408051601f19818403018152919052839190611d29565b6114cc6040518060400160405280600481526020017f70617468000000000000000000000000000000000000000000000000000000008152506040518060400160405280600681526020017f726573756c74000000000000000000000000000000000000000000000000000081525083611d0b9092919063ffffffff16565b60006114da82600254611d47565b905080600460006114e961182c565b6001600160a01b03166001600160a01b031681526020019081526020016000206000018190555086866004600061151e61182c565b6001600160a01b031681526020810191909152604001600020611546926001909101916126a6565b5061154f61182c565b600082815260056020526040902080546001600160a01b0319166001600160a01b03929092169190911790559695505050505050565b606080606080600080600060046000896001600160a01b03166001600160a01b031681526020019081526020016000206040518060a001604052908160008201548152602001600182018054600181600116156101000203166002900480601f0160208091040260200160405190810160405280929190818152602001828054600181600116156101000203166002900480156116635780601f1061163857610100808354040283529160200191611663565b820191906000526020600020905b81548152906001019060200180831161164657829003601f168201915b5050509183525050600282810180546040805160206001841615610100026000190190931694909404601f810183900483028501830190915280845293810193908301828280156116f55780601f106116ca576101008083540402835291602001916116f5565b820191906000526020600020905b8154815290600101906020018083116116d857829003601f168201915b5050509183525050600382015460ff16151560208083019190915260048301805460408051601f600260001960018616156101000201909416939093049283018590048502810185018252828152940193928301828280156117985780601f1061176d57610100808354040283529160200191611798565b820191906000526020600020905b81548152906001019060200180831161177b57829003601f168201915b5050505050815250509050806080015151600014156117c95760405162461bcd60e51b815260040161057290612d4d565b80516117d490611ba0565b6117f05760405162461bcd60e51b815260040161057290612ddf565b6000806000806118038560800151611d61565b60208a01516040909a0151999f50989d50919b5099509750949550505050505091939550919395565b3390565b60008281526040602081905290206118489082611d9c565b1561049e5761185561182c565b6001600160a01b0316816001600160a01b0316837f2f8788117e7eff1d82e926ec794901d17c78024a50270940304540a733656f0d60405160405180910390a45050565b60008281526040602081905290206118b19082611db1565b1561049e576118be61182c565b6001600160a01b0316816001600160a01b0316837ff6391f5c32d9c69d2a47ea670b442974b53935d1edc7fd64eb21e047a839171b60405160405180910390a45050565b600061190d30611dc6565b15905090565b600a80546001600160a01b0319166001600160a01b0392909216919091179055565b600b80546001600160a01b0319166001600160a01b0392909216919091179055565b600854610100900460ff16806119705750611970611902565b8061197e575060085460ff16155b6119b95760405162461bcd60e51b815260040180806020018281038252602e815260200180612f64602e913960400191505060405180910390fd5b600854610100900460ff161580156119e4576008805460ff1961ff0019909116610100171660011790555b80156109f5576008805461ff001916905550565b600082815260406020819052808220600201549051839285917fbd79b86ffe0ab8e8776151514217cd7cacd52c909f66475c3af44e129f0b00ff9190a460009182526040602081905290912060020155565b6000848152600d602052604080822080546001600160a01b0319811690915590516001600160a01b039091169186917fe1fe3afa0f7f761ff0a8b89086790efd5140d2907ebd5b7ff6bfcb5e075fd4c59190a2604080517f6ee4d55300000000000000000000000000000000000000000000000000000000815260048101879052602481018690527fffffffff00000000000000000000000000000000000000000000000000000000851660448201526064810184905290516001600160a01b03831691636ee4d55391608480830192600092919082900301818387803b158015611b3457600080fd5b505af1158015611b48573d6000803e3d6000fd5b505050505050505050565b6000610a108383611dcc565b600a546001600160a01b031690565b6000610a10836001600160a01b038416611e30565b806109f55760405162461bcd60e51b815260040161057290612ca8565b6000818152600d602052604081205482906001600160a01b031615611c0c576040805162461bcd60e51b815260206004820152601a60248201527f5265717565737420697320616c72656164792070656e64696e67000000000000604482015290519081900360640190fd5b50600192915050565b600080611c5784848080601f016020809104026020016040519081016040528093929190818152602001838380828437600092019190915250611d6192505050565b50935050509150611c688286611e48565b611c7061182c565b60008281526007602052604080822080546001600160a01b0319166001600160a01b039485161790555183928816907f874a2ec5722cd7eda7de89cd030f58c969310542d551b540230f17bf599d3fd890611ccc908790612c83565b60405180910390a45050505050565b60006105b982611e8c565b611cee61272e565b611cf661272e565b611d0281868686611e90565b95945050505050565b6080830151611d1a9083611ee5565b6080830151610b839082611ee5565b6080830151611d389083611ee5565b6080830151610b839082611efc565b600b54600090610a10906001600160a01b03168484611f09565b606080606060008060008060008060008a806020019051810190611d859190612a19565b939f929e50909c509a509098509650505050505050565b6000610a10836001600160a01b038416611f41565b6000610a10836001600160a01b038416611f8b565b3b151590565b81546000908210611e0e5760405162461bcd60e51b8152600401808060200182810382526022815260200180612ec06022913960400191505060405180910390fd5b826000018281548110611e1d57fe5b9060005260206000200154905092915050565b60009081526001919091016020526040902054151590565b8060066000611e568561072d565b815260200190815260200160002060006101000a8154816001600160a01b0302191690836001600160a01b031602179055505050565b5490565b611e9861272e565b611ea88560800151610100612051565b50509183526001600160a01b031660208301527fffffffff0000000000000000000000000000000000000000000000000000000016604082015290565b611ef2826003835161208b565b610b8382826121a0565b611ef2826002835161208b565b6000611f3984848460027f6de879d6000000000000000000000000000000000000000000000000000000006121ba565b949350505050565b6000611f4d8383611e30565b611f83575081546001818101845560008481526020808220909301849055845484825282860190935260409020919091556105b9565b5060006105b9565b600081815260018301602052604081205480156120475783546000198083019190810190600090879083908110611fbe57fe5b9060005260206000200154905080876000018481548110611fdb57fe5b60009182526020808320909101929092558281526001898101909252604090209084019055865487908061200b57fe5b600190038181906000526020600020016000905590558660010160008781526020019081526020016000206000905560019450505050506105b9565b60009150506105b9565b612059612763565b602082061561206e5760208206602003820191505b506020828101829052604080518085526000815290920101905290565b60178167ffffffffffffffff16116120b6576120b08360e0600585901b1683176124ae565b50610b83565b60ff8167ffffffffffffffff16116120f4576120dd836018611fe0600586901b16176124ae565b506120b08367ffffffffffffffff831660016124c6565b61ffff8167ffffffffffffffff16116121335761211c836019611fe0600586901b16176124ae565b506120b08367ffffffffffffffff831660026124c6565b63ffffffff8167ffffffffffffffff16116121745761215d83601a611fe0600586901b16176124ae565b506120b08367ffffffffffffffff831660046124c6565b61218983601b611fe0600586901b16176124ae565b5061070c8367ffffffffffffffff831660086124c6565b6121a8612763565b610a10838460000151518485516124df565b600c546040805130606090811b60208084019190915260348084018690528451808503909101815260549093018452825192810192909220908801939093526000838152600d90915281812080546001600160a01b0319166001600160a01b038a16179055905182917fb5e6e01e79f91267dc17b4e6314d5d4d03593d2ceee0fbb452b750bd70ea5af991a2600082600080886000015189602001518a604001518b606001518a8d608001516000015160405160240180896001600160a01b03168152602001888152602001878152602001866001600160a01b03168152602001856001600160e01b031916815260200184815260200183815260200180602001828103825283818151815260200191508051906020019080838360005b838110156122f05781810151838201526020016122d8565b50505050905090810190601f16801561231d5780820380516001836020036101000a031916815260200191505b509950505050505050505050604051602081830303815290604052906001600160e01b0319166020820180516001600160e01b0383818316178352505050509050600a60009054906101000a90046001600160a01b03166001600160a01b0316634000aea08887846040518463ffffffff1660e01b815260040180846001600160a01b0316815260200183815260200180602001828103825283818151815260200191508051906020019080838360005b838110156123e65781810151838201526020016123ce565b50505050905090810190601f1680156124135780820380516001836020036101000a031916815260200191505b50945050505050602060405180830381600087803b15801561243457600080fd5b505af1158015612448573d6000803e3d6000fd5b505050506040513d602081101561245e57600080fd5b505161249b5760405162461bcd60e51b8152600401808060200182810382526023815260200180612f116023913960400191505060405180910390fd5b50600c8054600101905595945050505050565b6124b6612763565b610a10838460000151518461258b565b6124ce612763565b611f398485600001515185856125d6565b6124e7612763565b82518211156124f557600080fd5b8460200151828501111561251f5761251f856125178760200151878601612634565b60020261264b565b60008086518051876020830101935080888701111561253e5787860182525b505050602084015b602084106125655780518252601f199093019260209182019101612546565b51815160001960208690036101000a019081169019919091161790525083949350505050565b612593612763565b836020015183106125af576125af84856020015160020261264b565b8351805160208583010184815350808514156125cc576001810182525b5093949350505050565b6125de612763565b846020015184830111156125fb576125fb8585840160020261264b565b60006001836101000a0390508551838682010185831982511617815250805184870111156126295783860181525b509495945050505050565b6000818311156126455750816105b9565b50919050565b81516126578383612051565b5061070c83826121a0565b50805460018160011615610100020316600290046000825580601f1061268857506109f5565b601f0160209004906000526020600020908101906109f5919061277d565b828054600181600116156101000203166002900490600052602060002090601f0160209004810192826126dc5760008555612722565b82601f106126f55782800160ff19823516178555612722565b82800160010185558215612722579182015b82811115612722578235825591602001919060010190612707565b50610e4292915061277d565b6040805160a08101825260008082526020820181905291810182905260608101919091526080810161275e612763565b905290565b604051806040016040528060608152602001600081525090565b5b80821115610e42576000815560010161277e565b80356001600160a01b038116811461043657600080fd5b8051801515811461043657600080fd5b60008083601f8401126127ca578182fd5b50813567ffffffffffffffff8111156127e1578182fd5b6020830191508360208285010111156127f957600080fd5b9250929050565b600082601f830112612810578081fd5b815161282361281e82612e71565b612e4d565b818152846020838601011115612837578283fd5b611f39826020830160208701612e93565b600060208284031215612859578081fd5b610a1082612792565b600080600060608486031215612876578182fd5b61287f84612792565b925061288d60208501612792565b9150604084013590509250925092565b6000602082840312156128ae578081fd5b610a10826127a9565b6000602082840312156128c8578081fd5b5035919050565b600080604083850312156128e1578182fd5b823591506128f160208401612792565b90509250929050565b60008060006040848603121561290e578283fd5b83359250602084013567ffffffffffffffff81111561292b578283fd5b612937868287016127b9565b9497909650939450505050565b60008060408385031215612956578182fd5b50508035926020909101359150565b60008060208385031215612977578182fd5b823567ffffffffffffffff81111561298d578283fd5b612999858286016127b9565b90969095509350505050565b6000602082840312156129b6578081fd5b813567ffffffffffffffff8111156129cc578182fd5b8201601f810184136129dc578182fd5b80356129ea61281e82612e71565b8181528560208385010111156129fe578384fd5b81602084016020830137908101602001929092525092915050565b600080600080600060a08688031215612a30578081fd5b855167ffffffffffffffff80821115612a47578283fd5b612a5389838a01612800565b96506020880151915080821115612a68578283fd5b612a7489838a01612800565b95506040880151915080821115612a89578283fd5b50612a9688828901612800565b93505060608601519150612aac608087016127a9565b90509295509295909350565b600060208284031215612ac9578081fd5b5051919050565b60008151808452612ae8816020860160208601612e93565b601f01601f19169290920160200192915050565b60609190911b6bffffffffffffffffffffffff1916815260140190565b6000828483379101908152919050565b60008251612b3b818460208701612e93565b9190910192915050565b6001600160a01b0391909116815260200190565b6001600160a01b03929092168252602082015260400190565b901515815260200190565b90815260200190565b600086825260a06020830152612b9f60a0830187612ad0565b8281036040840152612bb18187612ad0565b905084151560608401528281036080840152612bcd8185612ad0565b98975050505050505050565b60006020825282602083015282846040840137818301604090810191909152601f909201601f19160101919050565b600060208252610a106020830184612ad0565b600060c08252612c2e60c0830189612ad0565b8281036020840152612c408189612ad0565b90508281036040840152612c548188612ad0565b90508281036060840152612c688187612ad0565b6080840195909552505090151560a090910152949350505050565b600060408252612c966040830184612ad0565b82810360209384015290815201919050565b6020808252601a908201527f564552494649434154494f4e5f4841534e545f53544152544544000000000000604082015260600190565b60208082526018908201527f414444524553535f414c52454144595f56455249464945440000000000000000604082015260600190565b6020808252600c908201527f4d495353494e475f524f4c450000000000000000000000000000000000000000604082015260600190565b60208082526021908201527f416d61434c436c69656e743a205265717565737420566572696669636174696f60408201527f6e00000000000000000000000000000000000000000000000000000000000000606082015260800190565b6020808252818101527f545749545445525f555345524e414d455f414c52454144595f434c41494d4544604082015260600190565b60208082526015908201527f506c6561736520636c61696d537562446f6d61696e0000000000000000000000604082015260600190565b60208082526012908201527f554e41424c455f544f5f5452414e534645520000000000000000000000000000604082015260600190565b60405181810167ffffffffffffffff81118282101715612e6957fe5b604052919050565b600067ffffffffffffffff821115612e8557fe5b50601f01601f191660200190565b60005b83811015612eae578181015183820152602001612e96565b8381111561070c575050600091015256fe456e756d657261626c655365743a20696e646578206f7574206f6620626f756e6473416363657373436f6e74726f6c3a2073656e646572206d75737420626520616e2061646d696e20746f206772616e74756e61626c6520746f207472616e73666572416e6443616c6c20746f206f7261636c65416363657373436f6e74726f6c3a2073656e646572206d75737420626520616e2061646d696e20746f207265766f6b65496e697469616c697a61626c653a20636f6e747261637420697320616c726561647920696e697469616c697a6564536f75726365206d75737420626520746865206f7261636c65206f66207468652072657175657374416363657373436f6e74726f6c3a2063616e206f6e6c792072656e6f756e636520726f6c657320666f722073656c66a264697066735822122073b909136fe3310825306ebf6e0239ff564a4ecd90c88803df7ce25f7806873364736f6c63430007060033",
			"opcodes": "PUSH1 0x80 PUSH1 0x40 MSTORE PUSH1 0x1 PUSH1 0xC SSTORE CALLVALUE DUP1 ISZERO PUSH2 0x15 JUMPI PUSH1 0x0 DUP1 REVERT JUMPDEST POP PUSH2 0x301E DUP1 PUSH2 0x25 PUSH1 0x0 CODECOPY PUSH1 0x0 RETURN INVALID PUSH1 0x80 PUSH1 0x40 MSTORE CALLVALUE DUP1 ISZERO PUSH2 0x10 JUMPI PUSH1 0x0 DUP1 REVERT JUMPDEST POP PUSH1 0x4 CALLDATASIZE LT PUSH2 0x1E5 JUMPI PUSH1 0x0 CALLDATALOAD PUSH1 0xE0 SHR DUP1 PUSH4 0x9010D07C GT PUSH2 0x10F JUMPI DUP1 PUSH4 0xC2FB8523 GT PUSH2 0xA2 JUMPI DUP1 PUSH4 0xEF378F62 GT PUSH2 0x71 JUMPI DUP1 PUSH4 0xEF378F62 EQ PUSH2 0x3BF JUMPI DUP1 PUSH4 0xF36C8F5C EQ PUSH2 0x3E3 JUMPI DUP1 PUSH4 0xF7D3B6E5 EQ PUSH2 0x3EB JUMPI DUP1 PUSH4 0xFE9EFB2A EQ PUSH2 0x3FE JUMPI PUSH2 0x1E5 JUMP JUMPDEST DUP1 PUSH4 0xC2FB8523 EQ PUSH2 0x37E JUMPI DUP1 PUSH4 0xCA15C873 EQ PUSH2 0x391 JUMPI DUP1 PUSH4 0xD547741F EQ PUSH2 0x3A4 JUMPI DUP1 PUSH4 0xDDCA3F43 EQ PUSH2 0x3B7 JUMPI PUSH2 0x1E5 JUMP JUMPDEST DUP1 PUSH4 0xACAB1ACA GT PUSH2 0xDE JUMPI DUP1 PUSH4 0xACAB1ACA EQ PUSH2 0x346 JUMPI DUP1 PUSH4 0xB227F3BE EQ PUSH2 0x35B JUMPI DUP1 PUSH4 0xB69EF8A8 EQ PUSH2 0x36E JUMPI DUP1 PUSH4 0xC2939D97 EQ PUSH2 0x376 JUMPI PUSH2 0x1E5 JUMP JUMPDEST DUP1 PUSH4 0x9010D07C EQ PUSH2 0x300 JUMPI DUP1 PUSH4 0x90E9CA7F EQ PUSH2 0x313 JUMPI DUP1 PUSH4 0x91D14854 EQ PUSH2 0x326 JUMPI DUP1 PUSH4 0xA217FDDF EQ PUSH2 0x23B JUMPI PUSH2 0x1E5 JUMP JUMPDEST DUP1 PUSH4 0x536562BB GT PUSH2 0x187 JUMPI DUP1 PUSH4 0x7400F4CC GT PUSH2 0x156 JUMPI DUP1 PUSH4 0x7400F4CC EQ PUSH2 0x2CA JUMPI DUP1 PUSH4 0x7ADBF973 EQ PUSH2 0x2DD JUMPI DUP1 PUSH4 0x7DC0D1D0 EQ PUSH2 0x2F0 JUMPI DUP1 PUSH4 0x851B16F5 EQ PUSH2 0x2F8 JUMPI PUSH2 0x1E5 JUMP JUMPDEST DUP1 PUSH4 0x536562BB EQ PUSH2 0x27E JUMPI DUP1 PUSH4 0x565A2C4A EQ PUSH2 0x291 JUMPI DUP1 PUSH4 0x6133F985 EQ PUSH2 0x2A4 JUMPI DUP1 PUSH4 0x73D160A2 EQ PUSH2 0x2B7 JUMPI PUSH2 0x1E5 JUMP JUMPDEST DUP1 PUSH4 0x3D14319D GT PUSH2 0x1C3 JUMPI DUP1 PUSH4 0x3D14319D EQ PUSH2 0x23B JUMPI DUP1 PUSH4 0x4665096D EQ PUSH2 0x243 JUMPI DUP1 PUSH4 0x4F742837 EQ PUSH2 0x24B JUMPI DUP1 PUSH4 0x508954F8 EQ PUSH2 0x26B JUMPI PUSH2 0x1E5 JUMP JUMPDEST DUP1 PUSH4 0x248A9CA3 EQ PUSH2 0x1EA JUMPI DUP1 PUSH4 0x2F2FF15D EQ PUSH2 0x213 JUMPI DUP1 PUSH4 0x36568ABE EQ PUSH2 0x228 JUMPI JUMPDEST PUSH1 0x0 DUP1 REVERT JUMPDEST PUSH2 0x1FD PUSH2 0x1F8 CALLDATASIZE PUSH1 0x4 PUSH2 0x28B7 JUMP JUMPDEST PUSH2 0x423 JUMP JUMPDEST PUSH1 0x40 MLOAD PUSH2 0x20A SWAP2 SWAP1 PUSH2 0x2B7D JUMP JUMPDEST PUSH1 0x40 MLOAD DUP1 SWAP2 SUB SWAP1 RETURN JUMPDEST PUSH2 0x226 PUSH2 0x221 CALLDATASIZE PUSH1 0x4 PUSH2 0x28CF JUMP JUMPDEST PUSH2 0x43B JUMP JUMPDEST STOP JUMPDEST PUSH2 0x226 PUSH2 0x236 CALLDATASIZE PUSH1 0x4 PUSH2 0x28CF JUMP JUMPDEST PUSH2 0x4A2 JUMP JUMPDEST PUSH2 0x1FD PUSH2 0x503 JUMP JUMPDEST PUSH2 0x1FD PUSH2 0x508 JUMP JUMPDEST PUSH2 0x25E PUSH2 0x259 CALLDATASIZE PUSH1 0x4 PUSH2 0x28B7 JUMP JUMPDEST PUSH2 0x50E JUMP JUMPDEST PUSH1 0x40 MLOAD PUSH2 0x20A SWAP2 SWAP1 PUSH2 0x2B45 JUMP JUMPDEST PUSH2 0x226 PUSH2 0x279 CALLDATASIZE PUSH1 0x4 PUSH2 0x28B7 JUMP JUMPDEST PUSH2 0x529 JUMP JUMPDEST PUSH2 0x25E PUSH2 0x28C CALLDATASIZE PUSH1 0x4 PUSH2 0x28B7 JUMP JUMPDEST PUSH2 0x581 JUMP JUMPDEST PUSH2 0x1FD PUSH2 0x29F CALLDATASIZE PUSH1 0x4 PUSH2 0x2965 JUMP JUMPDEST PUSH2 0x59C JUMP JUMPDEST PUSH2 0x226 PUSH2 0x2B2 CALLDATASIZE PUSH1 0x4 PUSH2 0x2862 JUMP JUMPDEST PUSH2 0x5BF JUMP JUMPDEST PUSH2 0x25E PUSH2 0x2C5 CALLDATASIZE PUSH1 0x4 PUSH2 0x28B7 JUMP JUMPDEST PUSH2 0x712 JUMP JUMPDEST PUSH2 0x1FD PUSH2 0x2D8 CALLDATASIZE PUSH1 0x4 PUSH2 0x29A5 JUMP JUMPDEST PUSH2 0x72D JUMP JUMPDEST PUSH2 0x226 PUSH2 0x2EB CALLDATASIZE PUSH1 0x4 PUSH2 0x2848 JUMP JUMPDEST PUSH2 0x75D JUMP JUMPDEST PUSH2 0x25E PUSH2 0x7AF JUMP JUMPDEST PUSH2 0x226 PUSH2 0x7BE JUMP JUMPDEST PUSH2 0x25E PUSH2 0x30E CALLDATASIZE PUSH1 0x4 PUSH2 0x2944 JUMP JUMPDEST PUSH2 0x9F8 JUMP JUMPDEST PUSH2 0x226 PUSH2 0x321 CALLDATASIZE PUSH1 0x4 PUSH2 0x2848 JUMP JUMPDEST PUSH2 0xA17 JUMP JUMPDEST PUSH2 0x339 PUSH2 0x334 CALLDATASIZE PUSH1 0x4 PUSH2 0x28CF JUMP JUMPDEST PUSH2 0xB88 JUMP JUMPDEST PUSH1 0x40 MLOAD PUSH2 0x20A SWAP2 SWAP1 PUSH2 0x2B72 JUMP JUMPDEST PUSH2 0x34E PUSH2 0xBA0 JUMP JUMPDEST PUSH1 0x40 MLOAD PUSH2 0x20A SWAP2 SWAP1 PUSH2 0x2C08 JUMP JUMPDEST PUSH2 0x226 PUSH2 0x369 CALLDATASIZE PUSH1 0x4 PUSH2 0x2848 JUMP JUMPDEST PUSH2 0xCB7 JUMP JUMPDEST PUSH2 0x1FD PUSH2 0xD51 JUMP JUMPDEST PUSH2 0x1FD PUSH2 0xE46 JUMP JUMPDEST PUSH2 0x226 PUSH2 0x38C CALLDATASIZE PUSH1 0x4 PUSH2 0x28FA JUMP JUMPDEST PUSH2 0xE4C JUMP JUMPDEST PUSH2 0x1FD PUSH2 0x39F CALLDATASIZE PUSH1 0x4 PUSH2 0x28B7 JUMP JUMPDEST PUSH2 0x1021 JUMP JUMPDEST PUSH2 0x226 PUSH2 0x3B2 CALLDATASIZE PUSH1 0x4 PUSH2 0x28CF JUMP JUMPDEST PUSH2 0x1038 JUMP JUMPDEST PUSH2 0x1FD PUSH2 0x1091 JUMP JUMPDEST PUSH2 0x3D2 PUSH2 0x3CD CALLDATASIZE PUSH1 0x4 PUSH2 0x2848 JUMP JUMPDEST PUSH2 0x1097 JUMP JUMPDEST PUSH1 0x40 MLOAD PUSH2 0x20A SWAP6 SWAP5 SWAP4 SWAP3 SWAP2 SWAP1 PUSH2 0x2B86 JUMP JUMPDEST PUSH2 0x1FD PUSH2 0x126B JUMP JUMPDEST PUSH2 0x1FD PUSH2 0x3F9 CALLDATASIZE PUSH1 0x4 PUSH2 0x2965 JUMP JUMPDEST PUSH2 0x128F JUMP JUMPDEST PUSH2 0x411 PUSH2 0x40C CALLDATASIZE PUSH1 0x4 PUSH2 0x2848 JUMP JUMPDEST PUSH2 0x1585 JUMP JUMPDEST PUSH1 0x40 MLOAD PUSH2 0x20A SWAP7 SWAP6 SWAP5 SWAP4 SWAP3 SWAP2 SWAP1 PUSH2 0x2C1B JUMP JUMPDEST PUSH1 0x0 DUP2 DUP2 MSTORE PUSH1 0x40 PUSH1 0x20 DUP2 SWAP1 MSTORE SWAP1 KECCAK256 PUSH1 0x2 ADD SLOAD JUMPDEST SWAP2 SWAP1 POP JUMP JUMPDEST PUSH1 0x0 DUP3 DUP2 MSTORE PUSH1 0x40 PUSH1 0x20 DUP2 SWAP1 MSTORE SWAP1 KECCAK256 PUSH1 0x2 ADD SLOAD PUSH2 0x459 SWAP1 PUSH2 0x334 PUSH2 0x182C JUMP JUMPDEST PUSH2 0x494 JUMPI PUSH1 0x40 MLOAD PUSH3 0x461BCD PUSH1 0xE5 SHL DUP2 MSTORE PUSH1 0x4 ADD DUP1 DUP1 PUSH1 0x20 ADD DUP3 DUP2 SUB DUP3 MSTORE PUSH1 0x2F DUP2 MSTORE PUSH1 0x20 ADD DUP1 PUSH2 0x2EE2 PUSH1 0x2F SWAP2 CODECOPY PUSH1 0x40 ADD SWAP2 POP POP PUSH1 0x40 MLOAD DUP1 SWAP2 SUB SWAP1 REVERT JUMPDEST PUSH2 0x49E DUP3 DUP3 PUSH2 0x1830 JUMP JUMPDEST POP POP JUMP JUMPDEST PUSH2 0x4AA PUSH2 0x182C JUMP JUMPDEST PUSH1 0x1 PUSH1 0x1 PUSH1 0xA0 SHL SUB AND DUP2 PUSH1 0x1 PUSH1 0x1 PUSH1 0xA0 SHL SUB AND EQ PUSH2 0x4F9 JUMPI PUSH1 0x40 MLOAD PUSH3 0x461BCD PUSH1 0xE5 SHL DUP2 MSTORE PUSH1 0x4 ADD DUP1 DUP1 PUSH1 0x20 ADD DUP3 DUP2 SUB DUP3 MSTORE PUSH1 0x2F DUP2 MSTORE PUSH1 0x20 ADD DUP1 PUSH2 0x2FBA PUSH1 0x2F SWAP2 CODECOPY PUSH1 0x40 ADD SWAP2 POP POP PUSH1 0x40 MLOAD DUP1 SWAP2 SUB SWAP1 REVERT JUMPDEST PUSH2 0x49E DUP3 DUP3 PUSH2 0x1899 JUMP JUMPDEST PUSH1 0x0 DUP2 JUMP JUMPDEST PUSH1 0x3 SLOAD DUP2 JUMP JUMPDEST PUSH1 0x6 PUSH1 0x20 MSTORE PUSH1 0x0 SWAP1 DUP2 MSTORE PUSH1 0x40 SWAP1 KECCAK256 SLOAD PUSH1 0x1 PUSH1 0x1 PUSH1 0xA0 SHL SUB AND DUP2 JUMP JUMPDEST PUSH32 0x35A7846A2A701FFF6F9D61A46EBFF5DA578C5DCEE8BDF361C569F9EA4EE64771 PUSH2 0x556 DUP2 PUSH2 0x334 PUSH2 0x182C JUMP JUMPDEST PUSH2 0x57B JUMPI PUSH1 0x40 MLOAD PUSH3 0x461BCD PUSH1 0xE5 SHL DUP2 MSTORE PUSH1 0x4 ADD PUSH2 0x572 SWAP1 PUSH2 0x2D16 JUMP JUMPDEST PUSH1 0x40 MLOAD DUP1 SWAP2 SUB SWAP1 REVERT JUMPDEST POP PUSH1 0x1 SSTORE JUMP JUMPDEST PUSH1 0x7 PUSH1 0x20 MSTORE PUSH1 0x0 SWAP1 DUP2 MSTORE PUSH1 0x40 SWAP1 KECCAK256 SLOAD PUSH1 0x1 PUSH1 0x1 PUSH1 0xA0 SHL SUB AND DUP2 JUMP JUMPDEST PUSH1 0x0 DUP3 DUP3 PUSH1 0x40 MLOAD PUSH2 0x5AE SWAP3 SWAP2 SWAP1 PUSH2 0x2B19 JUMP JUMPDEST PUSH1 0x40 MLOAD DUP1 SWAP2 SUB SWAP1 KECCAK256 SWAP1 POP JUMPDEST SWAP3 SWAP2 POP POP JUMP JUMPDEST PUSH1 0x8 SLOAD PUSH2 0x100 SWAP1 DIV PUSH1 0xFF AND DUP1 PUSH2 0x5D8 JUMPI POP PUSH2 0x5D8 PUSH2 0x1902 JUMP JUMPDEST DUP1 PUSH2 0x5E6 JUMPI POP PUSH1 0x8 SLOAD PUSH1 0xFF AND ISZERO JUMPDEST PUSH2 0x621 JUMPI PUSH1 0x40 MLOAD PUSH3 0x461BCD PUSH1 0xE5 SHL DUP2 MSTORE PUSH1 0x4 ADD DUP1 DUP1 PUSH1 0x20 ADD DUP3 DUP2 SUB DUP3 MSTORE PUSH1 0x2E DUP2 MSTORE PUSH1 0x20 ADD DUP1 PUSH2 0x2F64 PUSH1 0x2E SWAP2 CODECOPY PUSH1 0x40 ADD SWAP2 POP POP PUSH1 0x40 MLOAD DUP1 SWAP2 SUB SWAP1 REVERT JUMPDEST PUSH1 0x8 SLOAD PUSH2 0x100 SWAP1 DIV PUSH1 0xFF AND ISZERO DUP1 ISZERO PUSH2 0x64C JUMPI PUSH1 0x8 DUP1 SLOAD PUSH1 0xFF NOT PUSH2 0xFF00 NOT SWAP1 SWAP2 AND PUSH2 0x100 OR AND PUSH1 0x1 OR SWAP1 SSTORE JUMPDEST PUSH2 0x669 PUSH20 0xB9D5D9136855F6FEC3C0993FEE6E9CE8A297846 PUSH2 0x1913 JUMP JUMPDEST PUSH2 0x672 DUP4 PUSH2 0x1935 JUMP JUMPDEST PUSH1 0x1 DUP3 SWAP1 SSTORE PUSH7 0x2386F26FC10000 PUSH1 0x2 SSTORE PUSH2 0x384 TIMESTAMP ADD PUSH1 0x3 SSTORE PUSH2 0x692 PUSH2 0x1957 JUMP JUMPDEST PUSH2 0x69A PUSH2 0x1957 JUMP JUMPDEST PUSH2 0x6A5 PUSH1 0x0 DUP6 PUSH2 0x494 JUMP JUMPDEST PUSH2 0x6CF PUSH32 0x35A7846A2A701FFF6F9D61A46EBFF5DA578C5DCEE8BDF361C569F9EA4EE64771 DUP6 PUSH2 0x494 JUMP JUMPDEST PUSH2 0x6FA PUSH32 0x35A7846A2A701FFF6F9D61A46EBFF5DA578C5DCEE8BDF361C569F9EA4EE64771 PUSH1 0x0 PUSH2 0x19F8 JUMP JUMPDEST DUP1 ISZERO PUSH2 0x70C JUMPI PUSH1 0x8 DUP1 SLOAD PUSH2 0xFF00 NOT AND SWAP1 SSTORE JUMPDEST POP POP POP POP JUMP JUMPDEST PUSH1 0x5 PUSH1 0x20 MSTORE PUSH1 0x0 SWAP1 DUP2 MSTORE PUSH1 0x40 SWAP1 KECCAK256 SLOAD PUSH1 0x1 PUSH1 0x1 PUSH1 0xA0 SHL SUB AND DUP2 JUMP JUMPDEST PUSH1 0x0 DUP2 PUSH1 0x40 MLOAD PUSH1 0x20 ADD PUSH2 0x740 SWAP2 SWAP1 PUSH2 0x2B29 JUMP JUMPDEST PUSH1 0x40 MLOAD PUSH1 0x20 DUP2 DUP4 SUB SUB DUP2 MSTORE SWAP1 PUSH1 0x40 MSTORE DUP1 MLOAD SWAP1 PUSH1 0x20 ADD KECCAK256 SWAP1 POP SWAP2 SWAP1 POP JUMP JUMPDEST PUSH32 0x35A7846A2A701FFF6F9D61A46EBFF5DA578C5DCEE8BDF361C569F9EA4EE64771 PUSH2 0x78A DUP2 PUSH2 0x334 PUSH2 0x182C JUMP JUMPDEST PUSH2 0x7A6 JUMPI PUSH1 0x40 MLOAD PUSH3 0x461BCD PUSH1 0xE5 SHL DUP2 MSTORE PUSH1 0x4 ADD PUSH2 0x572 SWAP1 PUSH2 0x2D16 JUMP JUMPDEST PUSH2 0x49E DUP3 PUSH2 0x1935 JUMP JUMPDEST PUSH1 0x0 SLOAD PUSH1 0x1 PUSH1 0x1 PUSH1 0xA0 SHL SUB AND DUP2 JUMP JUMPDEST PUSH1 0x0 PUSH1 0x4 PUSH1 0x0 PUSH2 0x7CC PUSH2 0x182C JUMP JUMPDEST PUSH1 0x1 PUSH1 0x1 PUSH1 0xA0 SHL SUB AND PUSH1 0x1 PUSH1 0x1 PUSH1 0xA0 SHL SUB AND DUP2 MSTORE PUSH1 0x20 ADD SWAP1 DUP2 MSTORE PUSH1 0x20 ADD PUSH1 0x0 KECCAK256 PUSH1 0x40 MLOAD DUP1 PUSH1 0xA0 ADD PUSH1 0x40 MSTORE SWAP1 DUP2 PUSH1 0x0 DUP3 ADD SLOAD DUP2 MSTORE PUSH1 0x20 ADD PUSH1 0x1 DUP3 ADD DUP1 SLOAD PUSH1 0x1 DUP2 PUSH1 0x1 AND ISZERO PUSH2 0x100 MUL SUB AND PUSH1 0x2 SWAP1 DIV DUP1 PUSH1 0x1F ADD PUSH1 0x20 DUP1 SWAP2 DIV MUL PUSH1 0x20 ADD PUSH1 0x40 MLOAD SWAP1 DUP2 ADD PUSH1 0x40 MSTORE DUP1 SWAP3 SWAP2 SWAP1 DUP2 DUP2 MSTORE PUSH1 0x20 ADD DUP3 DUP1 SLOAD PUSH1 0x1 DUP2 PUSH1 0x1 AND ISZERO PUSH2 0x100 MUL SUB AND PUSH1 0x2 SWAP1 DIV DUP1 ISZERO PUSH2 0x89A JUMPI DUP1 PUSH1 0x1F LT PUSH2 0x86F JUMPI PUSH2 0x100 DUP1 DUP4 SLOAD DIV MUL DUP4 MSTORE SWAP2 PUSH1 0x20 ADD SWAP2 PUSH2 0x89A JUMP JUMPDEST DUP3 ADD SWAP2 SWAP1 PUSH1 0x0 MSTORE PUSH1 0x20 PUSH1 0x0 KECCAK256 SWAP1 JUMPDEST DUP2 SLOAD DUP2 MSTORE SWAP1 PUSH1 0x1 ADD SWAP1 PUSH1 0x20 ADD DUP1 DUP4 GT PUSH2 0x87D JUMPI DUP3 SWAP1 SUB PUSH1 0x1F AND DUP3 ADD SWAP2 JUMPDEST POP POP POP SWAP2 DUP4 MSTORE POP POP PUSH1 0x2 DUP3 DUP2 ADD DUP1 SLOAD PUSH1 0x40 DUP1 MLOAD PUSH1 0x20 PUSH1 0x1 DUP5 AND ISZERO PUSH2 0x100 MUL PUSH1 0x0 NOT ADD SWAP1 SWAP4 AND SWAP5 SWAP1 SWAP5 DIV PUSH1 0x1F DUP2 ADD DUP4 SWAP1 DIV DUP4 MUL DUP6 ADD DUP4 ADD SWAP1 SWAP2 MSTORE DUP1 DUP5 MSTORE SWAP4 DUP2 ADD SWAP4 SWAP1 DUP4 ADD DUP3 DUP3 DUP1 ISZERO PUSH2 0x92C JUMPI DUP1 PUSH1 0x1F LT PUSH2 0x901 JUMPI PUSH2 0x100 DUP1 DUP4 SLOAD DIV MUL DUP4 MSTORE SWAP2 PUSH1 0x20 ADD SWAP2 PUSH2 0x92C JUMP JUMPDEST DUP3 ADD SWAP2 SWAP1 PUSH1 0x0 MSTORE PUSH1 0x20 PUSH1 0x0 KECCAK256 SWAP1 JUMPDEST DUP2 SLOAD DUP2 MSTORE SWAP1 PUSH1 0x1 ADD SWAP1 PUSH1 0x20 ADD DUP1 DUP4 GT PUSH2 0x90F JUMPI DUP3 SWAP1 SUB PUSH1 0x1F AND DUP3 ADD SWAP2 JUMPDEST POP POP POP SWAP2 DUP4 MSTORE POP POP PUSH1 0x3 DUP3 ADD SLOAD PUSH1 0xFF AND ISZERO ISZERO PUSH1 0x20 DUP1 DUP4 ADD SWAP2 SWAP1 SWAP2 MSTORE PUSH1 0x4 DUP4 ADD DUP1 SLOAD PUSH1 0x40 DUP1 MLOAD PUSH1 0x1F PUSH1 0x2 PUSH1 0x0 NOT PUSH1 0x1 DUP7 AND ISZERO PUSH2 0x100 MUL ADD SWAP1 SWAP5 AND SWAP4 SWAP1 SWAP4 DIV SWAP3 DUP4 ADD DUP6 SWAP1 DIV DUP6 MUL DUP2 ADD DUP6 ADD DUP3 MSTORE DUP3 DUP2 MSTORE SWAP5 ADD SWAP4 SWAP3 DUP4 ADD DUP3 DUP3 DUP1 ISZERO PUSH2 0x9CF JUMPI DUP1 PUSH1 0x1F LT PUSH2 0x9A4 JUMPI PUSH2 0x100 DUP1 DUP4 SLOAD DIV MUL DUP4 MSTORE SWAP2 PUSH1 0x20 ADD SWAP2 PUSH2 0x9CF JUMP JUMPDEST DUP3 ADD SWAP2 SWAP1 PUSH1 0x0 MSTORE PUSH1 0x20 PUSH1 0x0 KECCAK256 SWAP1 JUMPDEST DUP2 SLOAD DUP2 MSTORE SWAP1 PUSH1 0x1 ADD SWAP1 PUSH1 0x20 ADD DUP1 DUP4 GT PUSH2 0x9B2 JUMPI DUP3 SWAP1 SUB PUSH1 0x1F AND DUP3 ADD SWAP2 JUMPDEST POP POP POP POP POP DUP2 MSTORE POP POP SWAP1 POP PUSH2 0x9F5 DUP2 PUSH1 0x0 ADD MLOAD PUSH1 0x2 SLOAD PUSH4 0xC2FB8523 PUSH1 0xE0 SHL PUSH1 0x3 SLOAD PUSH2 0x1A4A JUMP JUMPDEST POP JUMP JUMPDEST PUSH1 0x0 DUP3 DUP2 MSTORE PUSH1 0x40 PUSH1 0x20 DUP2 SWAP1 MSTORE DUP2 KECCAK256 PUSH2 0xA10 SWAP1 DUP4 PUSH2 0x1B53 JUMP JUMPDEST SWAP4 SWAP3 POP POP POP JUMP JUMPDEST PUSH32 0x35A7846A2A701FFF6F9D61A46EBFF5DA578C5DCEE8BDF361C569F9EA4EE64771 PUSH2 0xA44 DUP2 PUSH2 0x334 PUSH2 0x182C JUMP JUMPDEST PUSH2 0xA60 JUMPI PUSH1 0x40 MLOAD PUSH3 0x461BCD PUSH1 0xE5 SHL DUP2 MSTORE PUSH1 0x4 ADD PUSH2 0x572 SWAP1 PUSH2 0x2D16 JUMP JUMPDEST PUSH1 0x0 PUSH2 0xA6A PUSH2 0x1B5F JUMP JUMPDEST SWAP1 POP DUP1 PUSH1 0x1 PUSH1 0x1 PUSH1 0xA0 SHL SUB AND PUSH4 0xA9059CBB DUP5 DUP4 PUSH1 0x1 PUSH1 0x1 PUSH1 0xA0 SHL SUB AND PUSH4 0x70A08231 ADDRESS PUSH1 0x40 MLOAD DUP3 PUSH4 0xFFFFFFFF AND PUSH1 0xE0 SHL DUP2 MSTORE PUSH1 0x4 ADD PUSH2 0xAA8 SWAP2 SWAP1 PUSH2 0x2B45 JUMP JUMPDEST PUSH1 0x20 PUSH1 0x40 MLOAD DUP1 DUP4 SUB DUP2 DUP7 DUP1 EXTCODESIZE ISZERO DUP1 ISZERO PUSH2 0xAC0 JUMPI PUSH1 0x0 DUP1 REVERT JUMPDEST POP GAS STATICCALL ISZERO DUP1 ISZERO PUSH2 0xAD4 JUMPI RETURNDATASIZE PUSH1 0x0 DUP1 RETURNDATACOPY RETURNDATASIZE PUSH1 0x0 REVERT JUMPDEST POP POP POP POP PUSH1 0x40 MLOAD RETURNDATASIZE PUSH1 0x1F NOT PUSH1 0x1F DUP3 ADD AND DUP3 ADD DUP1 PUSH1 0x40 MSTORE POP DUP2 ADD SWAP1 PUSH2 0xAF8 SWAP2 SWAP1 PUSH2 0x2AB8 JUMP JUMPDEST PUSH1 0x40 MLOAD DUP4 PUSH4 0xFFFFFFFF AND PUSH1 0xE0 SHL DUP2 MSTORE PUSH1 0x4 ADD PUSH2 0xB15 SWAP3 SWAP2 SWAP1 PUSH2 0x2B59 JUMP JUMPDEST PUSH1 0x20 PUSH1 0x40 MLOAD DUP1 DUP4 SUB DUP2 PUSH1 0x0 DUP8 DUP1 EXTCODESIZE ISZERO DUP1 ISZERO PUSH2 0xB2F JUMPI PUSH1 0x0 DUP1 REVERT JUMPDEST POP GAS CALL ISZERO DUP1 ISZERO PUSH2 0xB43 JUMPI RETURNDATASIZE PUSH1 0x0 DUP1 RETURNDATACOPY RETURNDATASIZE PUSH1 0x0 REVERT JUMPDEST POP POP POP POP PUSH1 0x40 MLOAD RETURNDATASIZE PUSH1 0x1F NOT PUSH1 0x1F DUP3 ADD AND DUP3 ADD DUP1 PUSH1 0x40 MSTORE POP DUP2 ADD SWAP1 PUSH2 0xB67 SWAP2 SWAP1 PUSH2 0x289D JUMP JUMPDEST PUSH2 0xB83 JUMPI PUSH1 0x40 MLOAD PUSH3 0x461BCD PUSH1 0xE5 SHL DUP2 MSTORE PUSH1 0x4 ADD PUSH2 0x572 SWAP1 PUSH2 0x2E16 JUMP JUMPDEST POP POP POP JUMP JUMPDEST PUSH1 0x0 DUP3 DUP2 MSTORE PUSH1 0x40 PUSH1 0x20 DUP2 SWAP1 MSTORE DUP2 KECCAK256 PUSH2 0xA10 SWAP1 DUP4 PUSH2 0x1B6E JUMP JUMPDEST PUSH1 0x60 PUSH1 0x0 PUSH1 0x4 PUSH1 0x0 PUSH2 0xBB0 PUSH2 0x182C JUMP JUMPDEST PUSH1 0x1 PUSH1 0x1 PUSH1 0xA0 SHL SUB AND DUP2 MSTORE PUSH1 0x20 DUP2 ADD SWAP2 SWAP1 SWAP2 MSTORE PUSH1 0x40 ADD PUSH1 0x0 KECCAK256 SLOAD SWAP1 POP PUSH2 0xBD5 DUP2 PUSH2 0x1B83 JUMP JUMPDEST PUSH2 0xBDE DUP2 PUSH2 0x1BA0 JUMP JUMPDEST ISZERO ISZERO PUSH1 0x1 EQ ISZERO PUSH2 0xCA2 JUMPI PUSH1 0x4 PUSH1 0x0 PUSH2 0xBF4 PUSH2 0x182C JUMP JUMPDEST PUSH1 0x1 PUSH1 0x1 PUSH1 0xA0 SHL SUB AND DUP2 MSTORE PUSH1 0x20 DUP1 DUP3 ADD SWAP3 SWAP1 SWAP3 MSTORE PUSH1 0x40 SWAP1 DUP2 ADD PUSH1 0x0 KECCAK256 PUSH1 0x4 ADD DUP1 SLOAD DUP3 MLOAD PUSH1 0x2 PUSH1 0x1 DUP4 AND ISZERO PUSH2 0x100 MUL PUSH1 0x0 NOT ADD SWAP1 SWAP3 AND SWAP2 SWAP1 SWAP2 DIV PUSH1 0x1F DUP2 ADD DUP6 SWAP1 DIV DUP6 MUL DUP3 ADD DUP6 ADD SWAP1 SWAP4 MSTORE DUP3 DUP2 MSTORE SWAP3 SWAP1 SWAP2 SWAP1 DUP4 ADD DUP3 DUP3 DUP1 ISZERO PUSH2 0xC95 JUMPI DUP1 PUSH1 0x1F LT PUSH2 0xC6A JUMPI PUSH2 0x100 DUP1 DUP4 SLOAD DIV MUL DUP4 MSTORE SWAP2 PUSH1 0x20 ADD SWAP2 PUSH2 0xC95 JUMP JUMPDEST DUP3 ADD SWAP2 SWAP1 PUSH1 0x0 MSTORE PUSH1 0x20 PUSH1 0x0 KECCAK256 SWAP1 JUMPDEST DUP2 SLOAD DUP2 MSTORE SWAP1 PUSH1 0x1 ADD SWAP1 PUSH1 0x20 ADD DUP1 DUP4 GT PUSH2 0xC78 JUMPI DUP3 SWAP1 SUB PUSH1 0x1F AND DUP3 ADD SWAP2 JUMPDEST POP POP POP POP POP SWAP2 POP POP PUSH2 0xCB4 JUMP JUMPDEST POP POP PUSH1 0x40 DUP1 MLOAD PUSH1 0x20 DUP2 ADD SWAP1 SWAP2 MSTORE PUSH1 0x0 DUP2 MSTORE JUMPDEST SWAP1 JUMP JUMPDEST PUSH32 0x35A7846A2A701FFF6F9D61A46EBFF5DA578C5DCEE8BDF361C569F9EA4EE64771 PUSH2 0xCE4 DUP2 PUSH2 0x334 PUSH2 0x182C JUMP JUMPDEST PUSH2 0xD00 JUMPI PUSH1 0x40 MLOAD PUSH3 0x461BCD PUSH1 0xE5 SHL DUP2 MSTORE PUSH1 0x4 ADD PUSH2 0x572 SWAP1 PUSH2 0x2D16 JUMP JUMPDEST PUSH1 0x1 PUSH1 0x1 PUSH1 0xA0 SHL SUB DUP3 AND PUSH1 0x0 SWAP1 DUP2 MSTORE PUSH1 0x4 PUSH1 0x20 MSTORE PUSH1 0x40 DUP2 KECCAK256 DUP2 DUP2 SSTORE SWAP1 PUSH2 0xD29 PUSH1 0x1 DUP4 ADD DUP3 PUSH2 0x2662 JUMP JUMPDEST PUSH2 0xD37 PUSH1 0x2 DUP4 ADD PUSH1 0x0 PUSH2 0x2662 JUMP JUMPDEST PUSH1 0x3 DUP3 ADD DUP1 SLOAD PUSH1 0xFF NOT AND SWAP1 SSTORE PUSH2 0x70C PUSH1 0x4 DUP4 ADD PUSH1 0x0 PUSH2 0x2662 JUMP JUMPDEST PUSH1 0x0 PUSH32 0x35A7846A2A701FFF6F9D61A46EBFF5DA578C5DCEE8BDF361C569F9EA4EE64771 PUSH2 0xD80 DUP2 PUSH2 0x334 PUSH2 0x182C JUMP JUMPDEST PUSH2 0xD9C JUMPI PUSH1 0x40 MLOAD PUSH3 0x461BCD PUSH1 0xE5 SHL DUP2 MSTORE PUSH1 0x4 ADD PUSH2 0x572 SWAP1 PUSH2 0x2D16 JUMP JUMPDEST PUSH1 0x0 PUSH2 0xDA6 PUSH2 0x1B5F JUMP JUMPDEST PUSH1 0x40 MLOAD PUSH32 0x70A0823100000000000000000000000000000000000000000000000000000000 DUP2 MSTORE SWAP1 SWAP2 POP PUSH1 0x1 PUSH1 0x1 PUSH1 0xA0 SHL SUB DUP3 AND SWAP1 PUSH4 0x70A08231 SWAP1 PUSH2 0xDEE SWAP1 ADDRESS SWAP1 PUSH1 0x4 ADD PUSH2 0x2B45 JUMP JUMPDEST PUSH1 0x20 PUSH1 0x40 MLOAD DUP1 DUP4 SUB DUP2 DUP7 DUP1 EXTCODESIZE ISZERO DUP1 ISZERO PUSH2 0xE06 JUMPI PUSH1 0x0 DUP1 REVERT JUMPDEST POP GAS STATICCALL ISZERO DUP1 ISZERO PUSH2 0xE1A JUMPI RETURNDATASIZE PUSH1 0x0 DUP1 RETURNDATACOPY RETURNDATASIZE PUSH1 0x0 REVERT JUMPDEST POP POP POP POP PUSH1 0x40 MLOAD RETURNDATASIZE PUSH1 0x1F NOT PUSH1 0x1F DUP3 ADD AND DUP3 ADD DUP1 PUSH1 0x40 MSTORE POP DUP2 ADD SWAP1 PUSH2 0xE3E SWAP2 SWAP1 PUSH2 0x2AB8 JUMP JUMPDEST SWAP3 POP POP JUMPDEST POP SWAP1 JUMP JUMPDEST PUSH1 0x1 SLOAD DUP2 JUMP JUMPDEST PUSH1 0x0 DUP4 DUP2 MSTORE PUSH1 0xD PUSH1 0x20 MSTORE PUSH1 0x40 SWAP1 KECCAK256 SLOAD DUP4 SWAP1 PUSH1 0x1 PUSH1 0x1 PUSH1 0xA0 SHL SUB AND CALLER EQ PUSH2 0xEA3 JUMPI PUSH1 0x40 MLOAD PUSH3 0x461BCD PUSH1 0xE5 SHL DUP2 MSTORE PUSH1 0x4 ADD DUP1 DUP1 PUSH1 0x20 ADD DUP3 DUP2 SUB DUP3 MSTORE PUSH1 0x28 DUP2 MSTORE PUSH1 0x20 ADD DUP1 PUSH2 0x2F92 PUSH1 0x28 SWAP2 CODECOPY PUSH1 0x40 ADD SWAP2 POP POP PUSH1 0x40 MLOAD DUP1 SWAP2 SUB SWAP1 REVERT JUMPDEST PUSH1 0x0 DUP2 DUP2 MSTORE PUSH1 0xD PUSH1 0x20 MSTORE PUSH1 0x40 DUP1 DUP3 KECCAK256 DUP1 SLOAD PUSH1 0x1 PUSH1 0x1 PUSH1 0xA0 SHL SUB NOT AND SWAP1 SSTORE MLOAD DUP3 SWAP2 PUSH32 0x7CC135E0CEBB02C3480AE5D74D377283180A2601F8F644EDF7987B009316C63A SWAP2 LOG2 PUSH1 0x0 DUP5 DUP2 MSTORE PUSH1 0x5 PUSH1 0x20 MSTORE PUSH1 0x40 SWAP1 KECCAK256 SLOAD PUSH1 0x1 PUSH1 0x1 PUSH1 0xA0 SHL SUB AND PUSH1 0x64 DUP4 GT ISZERO PUSH2 0xFB0 JUMPI PUSH1 0x1 PUSH1 0x1 PUSH1 0xA0 SHL SUB DUP2 AND PUSH1 0x0 SWAP1 DUP2 MSTORE PUSH1 0x4 PUSH1 0x20 DUP2 SWAP1 MSTORE PUSH1 0x40 SWAP1 SWAP2 KECCAK256 PUSH1 0x3 DUP2 ADD DUP1 SLOAD PUSH1 0xFF NOT AND PUSH1 0x1 OR SWAP1 SSTORE PUSH2 0xF3D SWAP2 ADD DUP6 DUP6 PUSH2 0x26A6 JUMP JUMPDEST POP PUSH2 0xF49 DUP2 DUP6 DUP6 PUSH2 0x1C15 JUMP JUMPDEST PUSH1 0x0 DUP6 DUP2 MSTORE PUSH1 0x5 PUSH1 0x20 MSTORE PUSH1 0x40 SWAP1 DUP2 SWAP1 KECCAK256 DUP1 SLOAD PUSH1 0x1 PUSH1 0x1 PUSH1 0xA0 SHL SUB NOT AND SWAP1 SSTORE MLOAD PUSH1 0x1 PUSH1 0x1 PUSH1 0xA0 SHL SUB DUP3 AND SWAP1 PUSH32 0x5558DD1C153E0C1F8C80798AEED4E67944C9F61B4B21FC582570130A778A964A SWAP1 PUSH2 0xFA2 SWAP1 DUP8 SWAP1 DUP8 SWAP1 PUSH2 0x2BD9 JUMP JUMPDEST PUSH1 0x40 MLOAD DUP1 SWAP2 SUB SWAP1 LOG2 POP PUSH2 0x70C JUMP JUMPDEST PUSH1 0x1 PUSH1 0x1 PUSH1 0xA0 SHL SUB DUP2 AND PUSH1 0x0 SWAP1 DUP2 MSTORE PUSH1 0x4 PUSH1 0x20 MSTORE PUSH1 0x40 DUP2 KECCAK256 PUSH2 0xFD7 SWAP2 PUSH1 0x1 SWAP1 SWAP2 ADD SWAP1 PUSH2 0x2662 JUMP JUMPDEST DUP1 PUSH1 0x1 PUSH1 0x1 PUSH1 0xA0 SHL SUB AND PUSH32 0x365B5CEB998CE6CD2A94807AD133912878EFB4835F3FA8AE003BF75529C7AF3B DUP6 DUP6 PUSH1 0x40 MLOAD PUSH2 0x1012 SWAP3 SWAP2 SWAP1 PUSH2 0x2BD9 JUMP JUMPDEST PUSH1 0x40 MLOAD DUP1 SWAP2 SUB SWAP1 LOG2 POP POP POP POP POP JUMP JUMPDEST PUSH1 0x0 DUP2 DUP2 MSTORE PUSH1 0x40 PUSH1 0x20 DUP2 SWAP1 MSTORE DUP2 KECCAK256 PUSH2 0x5B9 SWAP1 PUSH2 0x1CDB JUMP JUMPDEST PUSH1 0x0 DUP3 DUP2 MSTORE PUSH1 0x40 PUSH1 0x20 DUP2 SWAP1 MSTORE SWAP1 KECCAK256 PUSH1 0x2 ADD SLOAD PUSH2 0x1056 SWAP1 PUSH2 0x334 PUSH2 0x182C JUMP JUMPDEST PUSH2 0x4F9 JUMPI PUSH1 0x40 MLOAD PUSH3 0x461BCD PUSH1 0xE5 SHL DUP2 MSTORE PUSH1 0x4 ADD DUP1 DUP1 PUSH1 0x20 ADD DUP3 DUP2 SUB DUP3 MSTORE PUSH1 0x30 DUP2 MSTORE PUSH1 0x20 ADD DUP1 PUSH2 0x2F34 PUSH1 0x30 SWAP2 CODECOPY PUSH1 0x40 ADD SWAP2 POP POP PUSH1 0x40 MLOAD DUP1 SWAP2 SUB SWAP1 REVERT JUMPDEST PUSH1 0x2 SLOAD DUP2 JUMP JUMPDEST PUSH1 0x4 PUSH1 0x20 SWAP1 DUP2 MSTORE PUSH1 0x0 SWAP2 DUP3 MSTORE PUSH1 0x40 SWAP2 DUP3 SWAP1 KECCAK256 DUP1 SLOAD PUSH1 0x1 DUP1 DUP4 ADD DUP1 SLOAD DUP7 MLOAD PUSH1 0x2 SWAP4 DUP3 AND ISZERO PUSH2 0x100 MUL PUSH1 0x0 NOT ADD SWAP1 SWAP2 AND SWAP3 SWAP1 SWAP3 DIV PUSH1 0x1F DUP2 ADD DUP7 SWAP1 DIV DUP7 MUL DUP4 ADD DUP7 ADD SWAP1 SWAP7 MSTORE DUP6 DUP3 MSTORE SWAP2 SWAP5 SWAP3 SWAP4 SWAP1 SWAP3 SWAP1 DUP4 ADD DUP3 DUP3 DUP1 ISZERO PUSH2 0x1134 JUMPI DUP1 PUSH1 0x1F LT PUSH2 0x1109 JUMPI PUSH2 0x100 DUP1 DUP4 SLOAD DIV MUL DUP4 MSTORE SWAP2 PUSH1 0x20 ADD SWAP2 PUSH2 0x1134 JUMP JUMPDEST DUP3 ADD SWAP2 SWAP1 PUSH1 0x0 MSTORE PUSH1 0x20 PUSH1 0x0 KECCAK256 SWAP1 JUMPDEST DUP2 SLOAD DUP2 MSTORE SWAP1 PUSH1 0x1 ADD SWAP1 PUSH1 0x20 ADD DUP1 DUP4 GT PUSH2 0x1117 JUMPI DUP3 SWAP1 SUB PUSH1 0x1F AND DUP3 ADD SWAP2 JUMPDEST POP POP POP PUSH1 0x2 DUP1 DUP6 ADD DUP1 SLOAD PUSH1 0x40 DUP1 MLOAD PUSH1 0x20 PUSH1 0x1F PUSH1 0x0 NOT PUSH2 0x100 PUSH1 0x1 DUP8 AND ISZERO MUL ADD SWAP1 SWAP5 AND SWAP6 SWAP1 SWAP6 DIV SWAP3 DUP4 ADD DUP6 SWAP1 DIV DUP6 MUL DUP2 ADD DUP6 ADD SWAP1 SWAP2 MSTORE DUP2 DUP2 MSTORE SWAP6 SWAP7 SWAP6 SWAP5 POP SWAP1 SWAP3 POP SWAP1 DUP4 ADD DUP3 DUP3 DUP1 ISZERO PUSH2 0x11C6 JUMPI DUP1 PUSH1 0x1F LT PUSH2 0x119B JUMPI PUSH2 0x100 DUP1 DUP4 SLOAD DIV MUL DUP4 MSTORE SWAP2 PUSH1 0x20 ADD SWAP2 PUSH2 0x11C6 JUMP JUMPDEST DUP3 ADD SWAP2 SWAP1 PUSH1 0x0 MSTORE PUSH1 0x20 PUSH1 0x0 KECCAK256 SWAP1 JUMPDEST DUP2 SLOAD DUP2 MSTORE SWAP1 PUSH1 0x1 ADD SWAP1 PUSH1 0x20 ADD DUP1 DUP4 GT PUSH2 0x11A9 JUMPI DUP3 SWAP1 SUB PUSH1 0x1F AND DUP3 ADD SWAP2 JUMPDEST POP POP POP POP PUSH1 0x3 DUP4 ADD SLOAD PUSH1 0x4 DUP5 ADD DUP1 SLOAD PUSH1 0x40 DUP1 MLOAD PUSH1 0x20 PUSH1 0x2 PUSH2 0x100 PUSH1 0x1 DUP7 AND ISZERO MUL PUSH1 0x0 NOT ADD SWAP1 SWAP5 AND SWAP4 SWAP1 SWAP4 DIV PUSH1 0x1F DUP2 ADD DUP5 SWAP1 DIV DUP5 MUL DUP3 ADD DUP5 ADD SWAP1 SWAP3 MSTORE DUP2 DUP2 MSTORE SWAP6 SWAP7 PUSH1 0xFF SWAP1 SWAP5 AND SWAP6 SWAP4 SWAP5 POP SWAP1 DUP4 ADD DUP3 DUP3 DUP1 ISZERO PUSH2 0x1261 JUMPI DUP1 PUSH1 0x1F LT PUSH2 0x1236 JUMPI PUSH2 0x100 DUP1 DUP4 SLOAD DIV MUL DUP4 MSTORE SWAP2 PUSH1 0x20 ADD SWAP2 PUSH2 0x1261 JUMP JUMPDEST DUP3 ADD SWAP2 SWAP1 PUSH1 0x0 MSTORE PUSH1 0x20 PUSH1 0x0 KECCAK256 SWAP1 JUMPDEST DUP2 SLOAD DUP2 MSTORE SWAP1 PUSH1 0x1 ADD SWAP1 PUSH1 0x20 ADD DUP1 DUP4 GT PUSH2 0x1244 JUMPI DUP3 SWAP1 SUB PUSH1 0x1F AND DUP3 ADD SWAP2 JUMPDEST POP POP POP POP POP SWAP1 POP DUP6 JUMP JUMPDEST PUSH32 0x35A7846A2A701FFF6F9D61A46EBFF5DA578C5DCEE8BDF361C569F9EA4EE64771 DUP2 JUMP JUMPDEST PUSH1 0x0 PUSH1 0x4 PUSH1 0x0 PUSH2 0x129D PUSH2 0x182C JUMP JUMPDEST PUSH1 0x1 PUSH1 0x1 PUSH1 0xA0 SHL SUB AND DUP2 MSTORE PUSH1 0x20 DUP2 ADD SWAP2 SWAP1 SWAP2 MSTORE PUSH1 0x40 ADD PUSH1 0x0 KECCAK256 PUSH1 0x3 ADD SLOAD PUSH1 0xFF AND ISZERO PUSH2 0x12DA JUMPI PUSH1 0x40 MLOAD PUSH3 0x461BCD PUSH1 0xE5 SHL DUP2 MSTORE PUSH1 0x4 ADD PUSH2 0x572 SWAP1 PUSH2 0x2CDF JUMP JUMPDEST DUP3 DUP3 DUP1 DUP1 PUSH1 0x1F ADD PUSH1 0x20 DUP1 SWAP2 DIV MUL PUSH1 0x20 ADD PUSH1 0x40 MLOAD SWAP1 DUP2 ADD PUSH1 0x40 MSTORE DUP1 SWAP4 SWAP3 SWAP2 SWAP1 DUP2 DUP2 MSTORE PUSH1 0x20 ADD DUP4 DUP4 DUP1 DUP3 DUP5 CALLDATACOPY PUSH1 0x0 SWAP3 ADD DUP3 SWAP1 MSTORE POP SWAP3 POP PUSH2 0x131B SWAP2 POP DUP4 SWAP1 POP PUSH2 0x72D JUMP JUMPDEST PUSH1 0x0 DUP2 DUP2 MSTORE PUSH1 0x6 PUSH1 0x20 MSTORE PUSH1 0x40 SWAP1 KECCAK256 SLOAD SWAP1 SWAP2 POP PUSH1 0x1 PUSH1 0x1 PUSH1 0xA0 SHL SUB AND ISZERO PUSH2 0x1353 JUMPI PUSH1 0x40 MLOAD PUSH3 0x461BCD PUSH1 0xE5 SHL DUP2 MSTORE PUSH1 0x4 ADD PUSH2 0x572 SWAP1 PUSH2 0x2DAA JUMP JUMPDEST PUSH1 0x0 PUSH2 0x1369 PUSH1 0x1 SLOAD ADDRESS PUSH4 0xC2FB8523 PUSH1 0xE0 SHL PUSH2 0x1CE6 JUMP JUMPDEST SWAP1 POP PUSH2 0x13E4 PUSH1 0x40 MLOAD DUP1 PUSH1 0x40 ADD PUSH1 0x40 MSTORE DUP1 PUSH1 0x10 DUP2 MSTORE PUSH1 0x20 ADD PUSH32 0x747769747465725F757365726E616D6500000000000000000000000000000000 DUP2 MSTORE POP DUP8 DUP8 DUP1 DUP1 PUSH1 0x1F ADD PUSH1 0x20 DUP1 SWAP2 DIV MUL PUSH1 0x20 ADD PUSH1 0x40 MLOAD SWAP1 DUP2 ADD PUSH1 0x40 MSTORE DUP1 SWAP4 SWAP3 SWAP2 SWAP1 DUP2 DUP2 MSTORE PUSH1 0x20 ADD DUP4 DUP4 DUP1 DUP3 DUP5 CALLDATACOPY PUSH1 0x0 SWAP3 ADD SWAP2 SWAP1 SWAP2 MSTORE POP DUP7 SWAP5 SWAP4 SWAP3 POP POP PUSH2 0x1D0B SWAP1 POP JUMP JUMPDEST PUSH2 0x144D PUSH1 0x40 MLOAD DUP1 PUSH1 0x40 ADD PUSH1 0x40 MSTORE DUP1 PUSH1 0xD DUP2 MSTORE PUSH1 0x20 ADD PUSH32 0x616464726573735F627974657300000000000000000000000000000000000000 DUP2 MSTORE POP PUSH2 0x1425 PUSH2 0x182C JUMP JUMPDEST PUSH1 0x40 MLOAD PUSH1 0x20 ADD PUSH2 0x1435 SWAP2 SWAP1 PUSH2 0x2AFC JUMP JUMPDEST PUSH1 0x40 DUP1 MLOAD PUSH1 0x1F NOT DUP2 DUP5 SUB ADD DUP2 MSTORE SWAP2 SWAP1 MSTORE DUP4 SWAP2 SWAP1 PUSH2 0x1D29 JUMP JUMPDEST PUSH2 0x14CC PUSH1 0x40 MLOAD DUP1 PUSH1 0x40 ADD PUSH1 0x40 MSTORE DUP1 PUSH1 0x4 DUP2 MSTORE PUSH1 0x20 ADD PUSH32 0x7061746800000000000000000000000000000000000000000000000000000000 DUP2 MSTORE POP PUSH1 0x40 MLOAD DUP1 PUSH1 0x40 ADD PUSH1 0x40 MSTORE DUP1 PUSH1 0x6 DUP2 MSTORE PUSH1 0x20 ADD PUSH32 0x726573756C740000000000000000000000000000000000000000000000000000 DUP2 MSTORE POP DUP4 PUSH2 0x1D0B SWAP1 SWAP3 SWAP2 SWAP1 PUSH4 0xFFFFFFFF AND JUMP JUMPDEST PUSH1 0x0 PUSH2 0x14DA DUP3 PUSH1 0x2 SLOAD PUSH2 0x1D47 JUMP JUMPDEST SWAP1 POP DUP1 PUSH1 0x4 PUSH1 0x0 PUSH2 0x14E9 PUSH2 0x182C JUMP JUMPDEST PUSH1 0x1 PUSH1 0x1 PUSH1 0xA0 SHL SUB AND PUSH1 0x1 PUSH1 0x1 PUSH1 0xA0 SHL SUB AND DUP2 MSTORE PUSH1 0x20 ADD SWAP1 DUP2 MSTORE PUSH1 0x20 ADD PUSH1 0x0 KECCAK256 PUSH1 0x0 ADD DUP2 SWAP1 SSTORE POP DUP7 DUP7 PUSH1 0x4 PUSH1 0x0 PUSH2 0x151E PUSH2 0x182C JUMP JUMPDEST PUSH1 0x1 PUSH1 0x1 PUSH1 0xA0 SHL SUB AND DUP2 MSTORE PUSH1 0x20 DUP2 ADD SWAP2 SWAP1 SWAP2 MSTORE PUSH1 0x40 ADD PUSH1 0x0 KECCAK256 PUSH2 0x1546 SWAP3 PUSH1 0x1 SWAP1 SWAP2 ADD SWAP2 PUSH2 0x26A6 JUMP JUMPDEST POP PUSH2 0x154F PUSH2 0x182C JUMP JUMPDEST PUSH1 0x0 DUP3 DUP2 MSTORE PUSH1 0x5 PUSH1 0x20 MSTORE PUSH1 0x40 SWAP1 KECCAK256 DUP1 SLOAD PUSH1 0x1 PUSH1 0x1 PUSH1 0xA0 SHL SUB NOT AND PUSH1 0x1 PUSH1 0x1 PUSH1 0xA0 SHL SUB SWAP3 SWAP1 SWAP3 AND SWAP2 SWAP1 SWAP2 OR SWAP1 SSTORE SWAP7 SWAP6 POP POP POP POP POP POP JUMP JUMPDEST PUSH1 0x60 DUP1 PUSH1 0x60 DUP1 PUSH1 0x0 DUP1 PUSH1 0x0 PUSH1 0x4 PUSH1 0x0 DUP10 PUSH1 0x1 PUSH1 0x1 PUSH1 0xA0 SHL SUB AND PUSH1 0x1 PUSH1 0x1 PUSH1 0xA0 SHL SUB AND DUP2 MSTORE PUSH1 0x20 ADD SWAP1 DUP2 MSTORE PUSH1 0x20 ADD PUSH1 0x0 KECCAK256 PUSH1 0x40 MLOAD DUP1 PUSH1 0xA0 ADD PUSH1 0x40 MSTORE SWAP1 DUP2 PUSH1 0x0 DUP3 ADD SLOAD DUP2 MSTORE PUSH1 0x20 ADD PUSH1 0x1 DUP3 ADD DUP1 SLOAD PUSH1 0x1 DUP2 PUSH1 0x1 AND ISZERO PUSH2 0x100 MUL SUB AND PUSH1 0x2 SWAP1 DIV DUP1 PUSH1 0x1F ADD PUSH1 0x20 DUP1 SWAP2 DIV MUL PUSH1 0x20 ADD PUSH1 0x40 MLOAD SWAP1 DUP2 ADD PUSH1 0x40 MSTORE DUP1 SWAP3 SWAP2 SWAP1 DUP2 DUP2 MSTORE PUSH1 0x20 ADD DUP3 DUP1 SLOAD PUSH1 0x1 DUP2 PUSH1 0x1 AND ISZERO PUSH2 0x100 MUL SUB AND PUSH1 0x2 SWAP1 DIV DUP1 ISZERO PUSH2 0x1663 JUMPI DUP1 PUSH1 0x1F LT PUSH2 0x1638 JUMPI PUSH2 0x100 DUP1 DUP4 SLOAD DIV MUL DUP4 MSTORE SWAP2 PUSH1 0x20 ADD SWAP2 PUSH2 0x1663 JUMP JUMPDEST DUP3 ADD SWAP2 SWAP1 PUSH1 0x0 MSTORE PUSH1 0x20 PUSH1 0x0 KECCAK256 SWAP1 JUMPDEST DUP2 SLOAD DUP2 MSTORE SWAP1 PUSH1 0x1 ADD SWAP1 PUSH1 0x20 ADD DUP1 DUP4 GT PUSH2 0x1646 JUMPI DUP3 SWAP1 SUB PUSH1 0x1F AND DUP3 ADD SWAP2 JUMPDEST POP POP POP SWAP2 DUP4 MSTORE POP POP PUSH1 0x2 DUP3 DUP2 ADD DUP1 SLOAD PUSH1 0x40 DUP1 MLOAD PUSH1 0x20 PUSH1 0x1 DUP5 AND ISZERO PUSH2 0x100 MUL PUSH1 0x0 NOT ADD SWAP1 SWAP4 AND SWAP5 SWAP1 SWAP5 DIV PUSH1 0x1F DUP2 ADD DUP4 SWAP1 DIV DUP4 MUL DUP6 ADD DUP4 ADD SWAP1 SWAP2 MSTORE DUP1 DUP5 MSTORE SWAP4 DUP2 ADD SWAP4 SWAP1 DUP4 ADD DUP3 DUP3 DUP1 ISZERO PUSH2 0x16F5 JUMPI DUP1 PUSH1 0x1F LT PUSH2 0x16CA JUMPI PUSH2 0x100 DUP1 DUP4 SLOAD DIV MUL DUP4 MSTORE SWAP2 PUSH1 0x20 ADD SWAP2 PUSH2 0x16F5 JUMP JUMPDEST DUP3 ADD SWAP2 SWAP1 PUSH1 0x0 MSTORE PUSH1 0x20 PUSH1 0x0 KECCAK256 SWAP1 JUMPDEST DUP2 SLOAD DUP2 MSTORE SWAP1 PUSH1 0x1 ADD SWAP1 PUSH1 0x20 ADD DUP1 DUP4 GT PUSH2 0x16D8 JUMPI DUP3 SWAP1 SUB PUSH1 0x1F AND DUP3 ADD SWAP2 JUMPDEST POP POP POP SWAP2 DUP4 MSTORE POP POP PUSH1 0x3 DUP3 ADD SLOAD PUSH1 0xFF AND ISZERO ISZERO PUSH1 0x20 DUP1 DUP4 ADD SWAP2 SWAP1 SWAP2 MSTORE PUSH1 0x4 DUP4 ADD DUP1 SLOAD PUSH1 0x40 DUP1 MLOAD PUSH1 0x1F PUSH1 0x2 PUSH1 0x0 NOT PUSH1 0x1 DUP7 AND ISZERO PUSH2 0x100 MUL ADD SWAP1 SWAP5 AND SWAP4 SWAP1 SWAP4 DIV SWAP3 DUP4 ADD DUP6 SWAP1 DIV DUP6 MUL DUP2 ADD DUP6 ADD DUP3 MSTORE DUP3 DUP2 MSTORE SWAP5 ADD SWAP4 SWAP3 DUP4 ADD DUP3 DUP3 DUP1 ISZERO PUSH2 0x1798 JUMPI DUP1 PUSH1 0x1F LT PUSH2 0x176D JUMPI PUSH2 0x100 DUP1 DUP4 SLOAD DIV MUL DUP4 MSTORE SWAP2 PUSH1 0x20 ADD SWAP2 PUSH2 0x1798 JUMP JUMPDEST DUP3 ADD SWAP2 SWAP1 PUSH1 0x0 MSTORE PUSH1 0x20 PUSH1 0x0 KECCAK256 SWAP1 JUMPDEST DUP2 SLOAD DUP2 MSTORE SWAP1 PUSH1 0x1 ADD SWAP1 PUSH1 0x20 ADD DUP1 DUP4 GT PUSH2 0x177B JUMPI DUP3 SWAP1 SUB PUSH1 0x1F AND DUP3 ADD SWAP2 JUMPDEST POP POP POP POP POP DUP2 MSTORE POP POP SWAP1 POP DUP1 PUSH1 0x80 ADD MLOAD MLOAD PUSH1 0x0 EQ ISZERO PUSH2 0x17C9 JUMPI PUSH1 0x40 MLOAD PUSH3 0x461BCD PUSH1 0xE5 SHL DUP2 MSTORE PUSH1 0x4 ADD PUSH2 0x572 SWAP1 PUSH2 0x2D4D JUMP JUMPDEST DUP1 MLOAD PUSH2 0x17D4 SWAP1 PUSH2 0x1BA0 JUMP JUMPDEST PUSH2 0x17F0 JUMPI PUSH1 0x40 MLOAD PUSH3 0x461BCD PUSH1 0xE5 SHL DUP2 MSTORE PUSH1 0x4 ADD PUSH2 0x572 SWAP1 PUSH2 0x2DDF JUMP JUMPDEST PUSH1 0x0 DUP1 PUSH1 0x0 DUP1 PUSH2 0x1803 DUP6 PUSH1 0x80 ADD MLOAD PUSH2 0x1D61 JUMP JUMPDEST PUSH1 0x20 DUP11 ADD MLOAD PUSH1 0x40 SWAP1 SWAP11 ADD MLOAD SWAP10 SWAP16 POP SWAP9 SWAP14 POP SWAP2 SWAP12 POP SWAP10 POP SWAP8 POP SWAP5 SWAP6 POP POP POP POP POP POP SWAP2 SWAP4 SWAP6 POP SWAP2 SWAP4 SWAP6 JUMP JUMPDEST CALLER SWAP1 JUMP JUMPDEST PUSH1 0x0 DUP3 DUP2 MSTORE PUSH1 0x40 PUSH1 0x20 DUP2 SWAP1 MSTORE SWAP1 KECCAK256 PUSH2 0x1848 SWAP1 DUP3 PUSH2 0x1D9C JUMP JUMPDEST ISZERO PUSH2 0x49E JUMPI PUSH2 0x1855 PUSH2 0x182C JUMP JUMPDEST PUSH1 0x1 PUSH1 0x1 PUSH1 0xA0 SHL SUB AND DUP2 PUSH1 0x1 PUSH1 0x1 PUSH1 0xA0 SHL SUB AND DUP4 PUSH32 0x2F8788117E7EFF1D82E926EC794901D17C78024A50270940304540A733656F0D PUSH1 0x40 MLOAD PUSH1 0x40 MLOAD DUP1 SWAP2 SUB SWAP1 LOG4 POP POP JUMP JUMPDEST PUSH1 0x0 DUP3 DUP2 MSTORE PUSH1 0x40 PUSH1 0x20 DUP2 SWAP1 MSTORE SWAP1 KECCAK256 PUSH2 0x18B1 SWAP1 DUP3 PUSH2 0x1DB1 JUMP JUMPDEST ISZERO PUSH2 0x49E JUMPI PUSH2 0x18BE PUSH2 0x182C JUMP JUMPDEST PUSH1 0x1 PUSH1 0x1 PUSH1 0xA0 SHL SUB AND DUP2 PUSH1 0x1 PUSH1 0x1 PUSH1 0xA0 SHL SUB AND DUP4 PUSH32 0xF6391F5C32D9C69D2A47EA670B442974B53935D1EDC7FD64EB21E047A839171B PUSH1 0x40 MLOAD PUSH1 0x40 MLOAD DUP1 SWAP2 SUB SWAP1 LOG4 POP POP JUMP JUMPDEST PUSH1 0x0 PUSH2 0x190D ADDRESS PUSH2 0x1DC6 JUMP JUMPDEST ISZERO SWAP1 POP SWAP1 JUMP JUMPDEST PUSH1 0xA DUP1 SLOAD PUSH1 0x1 PUSH1 0x1 PUSH1 0xA0 SHL SUB NOT AND PUSH1 0x1 PUSH1 0x1 PUSH1 0xA0 SHL SUB SWAP3 SWAP1 SWAP3 AND SWAP2 SWAP1 SWAP2 OR SWAP1 SSTORE JUMP JUMPDEST PUSH1 0xB DUP1 SLOAD PUSH1 0x1 PUSH1 0x1 PUSH1 0xA0 SHL SUB NOT AND PUSH1 0x1 PUSH1 0x1 PUSH1 0xA0 SHL SUB SWAP3 SWAP1 SWAP3 AND SWAP2 SWAP1 SWAP2 OR SWAP1 SSTORE JUMP JUMPDEST PUSH1 0x8 SLOAD PUSH2 0x100 SWAP1 DIV PUSH1 0xFF AND DUP1 PUSH2 0x1970 JUMPI POP PUSH2 0x1970 PUSH2 0x1902 JUMP JUMPDEST DUP1 PUSH2 0x197E JUMPI POP PUSH1 0x8 SLOAD PUSH1 0xFF AND ISZERO JUMPDEST PUSH2 0x19B9 JUMPI PUSH1 0x40 MLOAD PUSH3 0x461BCD PUSH1 0xE5 SHL DUP2 MSTORE PUSH1 0x4 ADD DUP1 DUP1 PUSH1 0x20 ADD DUP3 DUP2 SUB DUP3 MSTORE PUSH1 0x2E DUP2 MSTORE PUSH1 0x20 ADD DUP1 PUSH2 0x2F64 PUSH1 0x2E SWAP2 CODECOPY PUSH1 0x40 ADD SWAP2 POP POP PUSH1 0x40 MLOAD DUP1 SWAP2 SUB SWAP1 REVERT JUMPDEST PUSH1 0x8 SLOAD PUSH2 0x100 SWAP1 DIV PUSH1 0xFF AND ISZERO DUP1 ISZERO PUSH2 0x19E4 JUMPI PUSH1 0x8 DUP1 SLOAD PUSH1 0xFF NOT PUSH2 0xFF00 NOT SWAP1 SWAP2 AND PUSH2 0x100 OR AND PUSH1 0x1 OR SWAP1 SSTORE JUMPDEST DUP1 ISZERO PUSH2 0x9F5 JUMPI PUSH1 0x8 DUP1 SLOAD PUSH2 0xFF00 NOT AND SWAP1 SSTORE POP JUMP JUMPDEST PUSH1 0x0 DUP3 DUP2 MSTORE PUSH1 0x40 PUSH1 0x20 DUP2 SWAP1 MSTORE DUP1 DUP3 KECCAK256 PUSH1 0x2 ADD SLOAD SWAP1 MLOAD DUP4 SWAP3 DUP6 SWAP2 PUSH32 0xBD79B86FFE0AB8E8776151514217CD7CACD52C909F66475C3AF44E129F0B00FF SWAP2 SWAP1 LOG4 PUSH1 0x0 SWAP2 DUP3 MSTORE PUSH1 0x40 PUSH1 0x20 DUP2 SWAP1 MSTORE SWAP1 SWAP2 KECCAK256 PUSH1 0x2 ADD SSTORE JUMP JUMPDEST PUSH1 0x0 DUP5 DUP2 MSTORE PUSH1 0xD PUSH1 0x20 MSTORE PUSH1 0x40 DUP1 DUP3 KECCAK256 DUP1 SLOAD PUSH1 0x1 PUSH1 0x1 PUSH1 0xA0 SHL SUB NOT DUP2 AND SWAP1 SWAP2 SSTORE SWAP1 MLOAD PUSH1 0x1 PUSH1 0x1 PUSH1 0xA0 SHL SUB SWAP1 SWAP2 AND SWAP2 DUP7 SWAP2 PUSH32 0xE1FE3AFA0F7F761FF0A8B89086790EFD5140D2907EBD5B7FF6BFCB5E075FD4C5 SWAP2 SWAP1 LOG2 PUSH1 0x40 DUP1 MLOAD PUSH32 0x6EE4D55300000000000000000000000000000000000000000000000000000000 DUP2 MSTORE PUSH1 0x4 DUP2 ADD DUP8 SWAP1 MSTORE PUSH1 0x24 DUP2 ADD DUP7 SWAP1 MSTORE PUSH32 0xFFFFFFFF00000000000000000000000000000000000000000000000000000000 DUP6 AND PUSH1 0x44 DUP3 ADD MSTORE PUSH1 0x64 DUP2 ADD DUP5 SWAP1 MSTORE SWAP1 MLOAD PUSH1 0x1 PUSH1 0x1 PUSH1 0xA0 SHL SUB DUP4 AND SWAP2 PUSH4 0x6EE4D553 SWAP2 PUSH1 0x84 DUP1 DUP4 ADD SWAP3 PUSH1 0x0 SWAP3 SWAP2 SWAP1 DUP3 SWAP1 SUB ADD DUP2 DUP4 DUP8 DUP1 EXTCODESIZE ISZERO DUP1 ISZERO PUSH2 0x1B34 JUMPI PUSH1 0x0 DUP1 REVERT JUMPDEST POP GAS CALL ISZERO DUP1 ISZERO PUSH2 0x1B48 JUMPI RETURNDATASIZE PUSH1 0x0 DUP1 RETURNDATACOPY RETURNDATASIZE PUSH1 0x0 REVERT JUMPDEST POP POP POP POP POP POP POP POP POP JUMP JUMPDEST PUSH1 0x0 PUSH2 0xA10 DUP4 DUP4 PUSH2 0x1DCC JUMP JUMPDEST PUSH1 0xA SLOAD PUSH1 0x1 PUSH1 0x1 PUSH1 0xA0 SHL SUB AND SWAP1 JUMP JUMPDEST PUSH1 0x0 PUSH2 0xA10 DUP4 PUSH1 0x1 PUSH1 0x1 PUSH1 0xA0 SHL SUB DUP5 AND PUSH2 0x1E30 JUMP JUMPDEST DUP1 PUSH2 0x9F5 JUMPI PUSH1 0x40 MLOAD PUSH3 0x461BCD PUSH1 0xE5 SHL DUP2 MSTORE PUSH1 0x4 ADD PUSH2 0x572 SWAP1 PUSH2 0x2CA8 JUMP JUMPDEST PUSH1 0x0 DUP2 DUP2 MSTORE PUSH1 0xD PUSH1 0x20 MSTORE PUSH1 0x40 DUP2 KECCAK256 SLOAD DUP3 SWAP1 PUSH1 0x1 PUSH1 0x1 PUSH1 0xA0 SHL SUB AND ISZERO PUSH2 0x1C0C JUMPI PUSH1 0x40 DUP1 MLOAD PUSH3 0x461BCD PUSH1 0xE5 SHL DUP2 MSTORE PUSH1 0x20 PUSH1 0x4 DUP3 ADD MSTORE PUSH1 0x1A PUSH1 0x24 DUP3 ADD MSTORE PUSH32 0x5265717565737420697320616C72656164792070656E64696E67000000000000 PUSH1 0x44 DUP3 ADD MSTORE SWAP1 MLOAD SWAP1 DUP2 SWAP1 SUB PUSH1 0x64 ADD SWAP1 REVERT JUMPDEST POP PUSH1 0x1 SWAP3 SWAP2 POP POP JUMP JUMPDEST PUSH1 0x0 DUP1 PUSH2 0x1C57 DUP5 DUP5 DUP1 DUP1 PUSH1 0x1F ADD PUSH1 0x20 DUP1 SWAP2 DIV MUL PUSH1 0x20 ADD PUSH1 0x40 MLOAD SWAP1 DUP2 ADD PUSH1 0x40 MSTORE DUP1 SWAP4 SWAP3 SWAP2 SWAP1 DUP2 DUP2 MSTORE PUSH1 0x20 ADD DUP4 DUP4 DUP1 DUP3 DUP5 CALLDATACOPY PUSH1 0x0 SWAP3 ADD SWAP2 SWAP1 SWAP2 MSTORE POP PUSH2 0x1D61 SWAP3 POP POP POP JUMP JUMPDEST POP SWAP4 POP POP POP SWAP2 POP PUSH2 0x1C68 DUP3 DUP7 PUSH2 0x1E48 JUMP JUMPDEST PUSH2 0x1C70 PUSH2 0x182C JUMP JUMPDEST PUSH1 0x0 DUP3 DUP2 MSTORE PUSH1 0x7 PUSH1 0x20 MSTORE PUSH1 0x40 DUP1 DUP3 KECCAK256 DUP1 SLOAD PUSH1 0x1 PUSH1 0x1 PUSH1 0xA0 SHL SUB NOT AND PUSH1 0x1 PUSH1 0x1 PUSH1 0xA0 SHL SUB SWAP5 DUP6 AND OR SWAP1 SSTORE MLOAD DUP4 SWAP3 DUP9 AND SWAP1 PUSH32 0x874A2EC5722CD7EDA7DE89CD030F58C969310542D551B540230F17BF599D3FD8 SWAP1 PUSH2 0x1CCC SWAP1 DUP8 SWAP1 PUSH2 0x2C83 JUMP JUMPDEST PUSH1 0x40 MLOAD DUP1 SWAP2 SUB SWAP1 LOG4 POP POP POP POP POP JUMP JUMPDEST PUSH1 0x0 PUSH2 0x5B9 DUP3 PUSH2 0x1E8C JUMP JUMPDEST PUSH2 0x1CEE PUSH2 0x272E JUMP JUMPDEST PUSH2 0x1CF6 PUSH2 0x272E JUMP JUMPDEST PUSH2 0x1D02 DUP2 DUP7 DUP7 DUP7 PUSH2 0x1E90 JUMP JUMPDEST SWAP6 SWAP5 POP POP POP POP POP JUMP JUMPDEST PUSH1 0x80 DUP4 ADD MLOAD PUSH2 0x1D1A SWAP1 DUP4 PUSH2 0x1EE5 JUMP JUMPDEST PUSH1 0x80 DUP4 ADD MLOAD PUSH2 0xB83 SWAP1 DUP3 PUSH2 0x1EE5 JUMP JUMPDEST PUSH1 0x80 DUP4 ADD MLOAD PUSH2 0x1D38 SWAP1 DUP4 PUSH2 0x1EE5 JUMP JUMPDEST PUSH1 0x80 DUP4 ADD MLOAD PUSH2 0xB83 SWAP1 DUP3 PUSH2 0x1EFC JUMP JUMPDEST PUSH1 0xB SLOAD PUSH1 0x0 SWAP1 PUSH2 0xA10 SWAP1 PUSH1 0x1 PUSH1 0x1 PUSH1 0xA0 SHL SUB AND DUP5 DUP5 PUSH2 0x1F09 JUMP JUMPDEST PUSH1 0x60 DUP1 PUSH1 0x60 PUSH1 0x0 DUP1 PUSH1 0x0 DUP1 PUSH1 0x0 DUP1 PUSH1 0x0 DUP11 DUP1 PUSH1 0x20 ADD SWAP1 MLOAD DUP2 ADD SWAP1 PUSH2 0x1D85 SWAP2 SWAP1 PUSH2 0x2A19 JUMP JUMPDEST SWAP4 SWAP16 SWAP3 SWAP15 POP SWAP1 SWAP13 POP SWAP11 POP SWAP1 SWAP9 POP SWAP7 POP POP POP POP POP POP POP JUMP JUMPDEST PUSH1 0x0 PUSH2 0xA10 DUP4 PUSH1 0x1 PUSH1 0x1 PUSH1 0xA0 SHL SUB DUP5 AND PUSH2 0x1F41 JUMP JUMPDEST PUSH1 0x0 PUSH2 0xA10 DUP4 PUSH1 0x1 PUSH1 0x1 PUSH1 0xA0 SHL SUB DUP5 AND PUSH2 0x1F8B JUMP JUMPDEST EXTCODESIZE ISZERO ISZERO SWAP1 JUMP JUMPDEST DUP2 SLOAD PUSH1 0x0 SWAP1 DUP3 LT PUSH2 0x1E0E JUMPI PUSH1 0x40 MLOAD PUSH3 0x461BCD PUSH1 0xE5 SHL DUP2 MSTORE PUSH1 0x4 ADD DUP1 DUP1 PUSH1 0x20 ADD DUP3 DUP2 SUB DUP3 MSTORE PUSH1 0x22 DUP2 MSTORE PUSH1 0x20 ADD DUP1 PUSH2 0x2EC0 PUSH1 0x22 SWAP2 CODECOPY PUSH1 0x40 ADD SWAP2 POP POP PUSH1 0x40 MLOAD DUP1 SWAP2 SUB SWAP1 REVERT JUMPDEST DUP3 PUSH1 0x0 ADD DUP3 DUP2 SLOAD DUP2 LT PUSH2 0x1E1D JUMPI INVALID JUMPDEST SWAP1 PUSH1 0x0 MSTORE PUSH1 0x20 PUSH1 0x0 KECCAK256 ADD SLOAD SWAP1 POP SWAP3 SWAP2 POP POP JUMP JUMPDEST PUSH1 0x0 SWAP1 DUP2 MSTORE PUSH1 0x1 SWAP2 SWAP1 SWAP2 ADD PUSH1 0x20 MSTORE PUSH1 0x40 SWAP1 KECCAK256 SLOAD ISZERO ISZERO SWAP1 JUMP JUMPDEST DUP1 PUSH1 0x6 PUSH1 0x0 PUSH2 0x1E56 DUP6 PUSH2 0x72D JUMP JUMPDEST DUP2 MSTORE PUSH1 0x20 ADD SWAP1 DUP2 MSTORE PUSH1 0x20 ADD PUSH1 0x0 KECCAK256 PUSH1 0x0 PUSH2 0x100 EXP DUP2 SLOAD DUP2 PUSH1 0x1 PUSH1 0x1 PUSH1 0xA0 SHL SUB MUL NOT AND SWAP1 DUP4 PUSH1 0x1 PUSH1 0x1 PUSH1 0xA0 SHL SUB AND MUL OR SWAP1 SSTORE POP POP POP JUMP JUMPDEST SLOAD SWAP1 JUMP JUMPDEST PUSH2 0x1E98 PUSH2 0x272E JUMP JUMPDEST PUSH2 0x1EA8 DUP6 PUSH1 0x80 ADD MLOAD PUSH2 0x100 PUSH2 0x2051 JUMP JUMPDEST POP POP SWAP2 DUP4 MSTORE PUSH1 0x1 PUSH1 0x1 PUSH1 0xA0 SHL SUB AND PUSH1 0x20 DUP4 ADD MSTORE PUSH32 0xFFFFFFFF00000000000000000000000000000000000000000000000000000000 AND PUSH1 0x40 DUP3 ADD MSTORE SWAP1 JUMP JUMPDEST PUSH2 0x1EF2 DUP3 PUSH1 0x3 DUP4 MLOAD PUSH2 0x208B JUMP JUMPDEST PUSH2 0xB83 DUP3 DUP3 PUSH2 0x21A0 JUMP JUMPDEST PUSH2 0x1EF2 DUP3 PUSH1 0x2 DUP4 MLOAD PUSH2 0x208B JUMP JUMPDEST PUSH1 0x0 PUSH2 0x1F39 DUP5 DUP5 DUP5 PUSH1 0x2 PUSH32 0x6DE879D600000000000000000000000000000000000000000000000000000000 PUSH2 0x21BA JUMP JUMPDEST SWAP5 SWAP4 POP POP POP POP JUMP JUMPDEST PUSH1 0x0 PUSH2 0x1F4D DUP4 DUP4 PUSH2 0x1E30 JUMP JUMPDEST PUSH2 0x1F83 JUMPI POP DUP2 SLOAD PUSH1 0x1 DUP2 DUP2 ADD DUP5 SSTORE PUSH1 0x0 DUP5 DUP2 MSTORE PUSH1 0x20 DUP1 DUP3 KECCAK256 SWAP1 SWAP4 ADD DUP5 SWAP1 SSTORE DUP5 SLOAD DUP5 DUP3 MSTORE DUP3 DUP7 ADD SWAP1 SWAP4 MSTORE PUSH1 0x40 SWAP1 KECCAK256 SWAP2 SWAP1 SWAP2 SSTORE PUSH2 0x5B9 JUMP JUMPDEST POP PUSH1 0x0 PUSH2 0x5B9 JUMP JUMPDEST PUSH1 0x0 DUP2 DUP2 MSTORE PUSH1 0x1 DUP4 ADD PUSH1 0x20 MSTORE PUSH1 0x40 DUP2 KECCAK256 SLOAD DUP1 ISZERO PUSH2 0x2047 JUMPI DUP4 SLOAD PUSH1 0x0 NOT DUP1 DUP4 ADD SWAP2 SWAP1 DUP2 ADD SWAP1 PUSH1 0x0 SWAP1 DUP8 SWAP1 DUP4 SWAP1 DUP2 LT PUSH2 0x1FBE JUMPI INVALID JUMPDEST SWAP1 PUSH1 0x0 MSTORE PUSH1 0x20 PUSH1 0x0 KECCAK256 ADD SLOAD SWAP1 POP DUP1 DUP8 PUSH1 0x0 ADD DUP5 DUP2 SLOAD DUP2 LT PUSH2 0x1FDB JUMPI INVALID JUMPDEST PUSH1 0x0 SWAP2 DUP3 MSTORE PUSH1 0x20 DUP1 DUP4 KECCAK256 SWAP1 SWAP2 ADD SWAP3 SWAP1 SWAP3 SSTORE DUP3 DUP2 MSTORE PUSH1 0x1 DUP10 DUP2 ADD SWAP1 SWAP3 MSTORE PUSH1 0x40 SWAP1 KECCAK256 SWAP1 DUP5 ADD SWAP1 SSTORE DUP7 SLOAD DUP8 SWAP1 DUP1 PUSH2 0x200B JUMPI INVALID JUMPDEST PUSH1 0x1 SWAP1 SUB DUP2 DUP2 SWAP1 PUSH1 0x0 MSTORE PUSH1 0x20 PUSH1 0x0 KECCAK256 ADD PUSH1 0x0 SWAP1 SSTORE SWAP1 SSTORE DUP7 PUSH1 0x1 ADD PUSH1 0x0 DUP8 DUP2 MSTORE PUSH1 0x20 ADD SWAP1 DUP2 MSTORE PUSH1 0x20 ADD PUSH1 0x0 KECCAK256 PUSH1 0x0 SWAP1 SSTORE PUSH1 0x1 SWAP5 POP POP POP POP POP PUSH2 0x5B9 JUMP JUMPDEST PUSH1 0x0 SWAP2 POP POP PUSH2 0x5B9 JUMP JUMPDEST PUSH2 0x2059 PUSH2 0x2763 JUMP JUMPDEST PUSH1 0x20 DUP3 MOD ISZERO PUSH2 0x206E JUMPI PUSH1 0x20 DUP3 MOD PUSH1 0x20 SUB DUP3 ADD SWAP2 POP JUMPDEST POP PUSH1 0x20 DUP3 DUP2 ADD DUP3 SWAP1 MSTORE PUSH1 0x40 DUP1 MLOAD DUP1 DUP6 MSTORE PUSH1 0x0 DUP2 MSTORE SWAP1 SWAP3 ADD ADD SWAP1 MSTORE SWAP1 JUMP JUMPDEST PUSH1 0x17 DUP2 PUSH8 0xFFFFFFFFFFFFFFFF AND GT PUSH2 0x20B6 JUMPI PUSH2 0x20B0 DUP4 PUSH1 0xE0 PUSH1 0x5 DUP6 SWAP1 SHL AND DUP4 OR PUSH2 0x24AE JUMP JUMPDEST POP PUSH2 0xB83 JUMP JUMPDEST PUSH1 0xFF DUP2 PUSH8 0xFFFFFFFFFFFFFFFF AND GT PUSH2 0x20F4 JUMPI PUSH2 0x20DD DUP4 PUSH1 0x18 PUSH2 0x1FE0 PUSH1 0x5 DUP7 SWAP1 SHL AND OR PUSH2 0x24AE JUMP JUMPDEST POP PUSH2 0x20B0 DUP4 PUSH8 0xFFFFFFFFFFFFFFFF DUP4 AND PUSH1 0x1 PUSH2 0x24C6 JUMP JUMPDEST PUSH2 0xFFFF DUP2 PUSH8 0xFFFFFFFFFFFFFFFF AND GT PUSH2 0x2133 JUMPI PUSH2 0x211C DUP4 PUSH1 0x19 PUSH2 0x1FE0 PUSH1 0x5 DUP7 SWAP1 SHL AND OR PUSH2 0x24AE JUMP JUMPDEST POP PUSH2 0x20B0 DUP4 PUSH8 0xFFFFFFFFFFFFFFFF DUP4 AND PUSH1 0x2 PUSH2 0x24C6 JUMP JUMPDEST PUSH4 0xFFFFFFFF DUP2 PUSH8 0xFFFFFFFFFFFFFFFF AND GT PUSH2 0x2174 JUMPI PUSH2 0x215D DUP4 PUSH1 0x1A PUSH2 0x1FE0 PUSH1 0x5 DUP7 SWAP1 SHL AND OR PUSH2 0x24AE JUMP JUMPDEST POP PUSH2 0x20B0 DUP4 PUSH8 0xFFFFFFFFFFFFFFFF DUP4 AND PUSH1 0x4 PUSH2 0x24C6 JUMP JUMPDEST PUSH2 0x2189 DUP4 PUSH1 0x1B PUSH2 0x1FE0 PUSH1 0x5 DUP7 SWAP1 SHL AND OR PUSH2 0x24AE JUMP JUMPDEST POP PUSH2 0x70C DUP4 PUSH8 0xFFFFFFFFFFFFFFFF DUP4 AND PUSH1 0x8 PUSH2 0x24C6 JUMP JUMPDEST PUSH2 0x21A8 PUSH2 0x2763 JUMP JUMPDEST PUSH2 0xA10 DUP4 DUP5 PUSH1 0x0 ADD MLOAD MLOAD DUP5 DUP6 MLOAD PUSH2 0x24DF JUMP JUMPDEST PUSH1 0xC SLOAD PUSH1 0x40 DUP1 MLOAD ADDRESS PUSH1 0x60 SWAP1 DUP2 SHL PUSH1 0x20 DUP1 DUP5 ADD SWAP2 SWAP1 SWAP2 MSTORE PUSH1 0x34 DUP1 DUP5 ADD DUP7 SWAP1 MSTORE DUP5 MLOAD DUP1 DUP6 SUB SWAP1 SWAP2 ADD DUP2 MSTORE PUSH1 0x54 SWAP1 SWAP4 ADD DUP5 MSTORE DUP3 MLOAD SWAP3 DUP2 ADD SWAP3 SWAP1 SWAP3 KECCAK256 SWAP1 DUP9 ADD SWAP4 SWAP1 SWAP4 MSTORE PUSH1 0x0 DUP4 DUP2 MSTORE PUSH1 0xD SWAP1 SWAP2 MSTORE DUP2 DUP2 KECCAK256 DUP1 SLOAD PUSH1 0x1 PUSH1 0x1 PUSH1 0xA0 SHL SUB NOT AND PUSH1 0x1 PUSH1 0x1 PUSH1 0xA0 SHL SUB DUP11 AND OR SWAP1 SSTORE SWAP1 MLOAD DUP3 SWAP2 PUSH32 0xB5E6E01E79F91267DC17B4E6314D5D4D03593D2CEEE0FBB452B750BD70EA5AF9 SWAP2 LOG2 PUSH1 0x0 DUP3 PUSH1 0x0 DUP1 DUP9 PUSH1 0x0 ADD MLOAD DUP10 PUSH1 0x20 ADD MLOAD DUP11 PUSH1 0x40 ADD MLOAD DUP12 PUSH1 0x60 ADD MLOAD DUP11 DUP14 PUSH1 0x80 ADD MLOAD PUSH1 0x0 ADD MLOAD PUSH1 0x40 MLOAD PUSH1 0x24 ADD DUP1 DUP10 PUSH1 0x1 PUSH1 0x1 PUSH1 0xA0 SHL SUB AND DUP2 MSTORE PUSH1 0x20 ADD DUP9 DUP2 MSTORE PUSH1 0x20 ADD DUP8 DUP2 MSTORE PUSH1 0x20 ADD DUP7 PUSH1 0x1 PUSH1 0x1 PUSH1 0xA0 SHL SUB AND DUP2 MSTORE PUSH1 0x20 ADD DUP6 PUSH1 0x1 PUSH1 0x1 PUSH1 0xE0 SHL SUB NOT AND DUP2 MSTORE PUSH1 0x20 ADD DUP5 DUP2 MSTORE PUSH1 0x20 ADD DUP4 DUP2 MSTORE PUSH1 0x20 ADD DUP1 PUSH1 0x20 ADD DUP3 DUP2 SUB DUP3 MSTORE DUP4 DUP2 DUP2 MLOAD DUP2 MSTORE PUSH1 0x20 ADD SWAP2 POP DUP1 MLOAD SWAP1 PUSH1 0x20 ADD SWAP1 DUP1 DUP4 DUP4 PUSH1 0x0 JUMPDEST DUP4 DUP2 LT ISZERO PUSH2 0x22F0 JUMPI DUP2 DUP2 ADD MLOAD DUP4 DUP3 ADD MSTORE PUSH1 0x20 ADD PUSH2 0x22D8 JUMP JUMPDEST POP POP POP POP SWAP1 POP SWAP1 DUP2 ADD SWAP1 PUSH1 0x1F AND DUP1 ISZERO PUSH2 0x231D JUMPI DUP1 DUP3 SUB DUP1 MLOAD PUSH1 0x1 DUP4 PUSH1 0x20 SUB PUSH2 0x100 EXP SUB NOT AND DUP2 MSTORE PUSH1 0x20 ADD SWAP2 POP JUMPDEST POP SWAP10 POP POP POP POP POP POP POP POP POP POP PUSH1 0x40 MLOAD PUSH1 0x20 DUP2 DUP4 SUB SUB DUP2 MSTORE SWAP1 PUSH1 0x40 MSTORE SWAP1 PUSH1 0x1 PUSH1 0x1 PUSH1 0xE0 SHL SUB NOT AND PUSH1 0x20 DUP3 ADD DUP1 MLOAD PUSH1 0x1 PUSH1 0x1 PUSH1 0xE0 SHL SUB DUP4 DUP2 DUP4 AND OR DUP4 MSTORE POP POP POP POP SWAP1 POP PUSH1 0xA PUSH1 0x0 SWAP1 SLOAD SWAP1 PUSH2 0x100 EXP SWAP1 DIV PUSH1 0x1 PUSH1 0x1 PUSH1 0xA0 SHL SUB AND PUSH1 0x1 PUSH1 0x1 PUSH1 0xA0 SHL SUB AND PUSH4 0x4000AEA0 DUP9 DUP8 DUP5 PUSH1 0x40 MLOAD DUP5 PUSH4 0xFFFFFFFF AND PUSH1 0xE0 SHL DUP2 MSTORE PUSH1 0x4 ADD DUP1 DUP5 PUSH1 0x1 PUSH1 0x1 PUSH1 0xA0 SHL SUB AND DUP2 MSTORE PUSH1 0x20 ADD DUP4 DUP2 MSTORE PUSH1 0x20 ADD DUP1 PUSH1 0x20 ADD DUP3 DUP2 SUB DUP3 MSTORE DUP4 DUP2 DUP2 MLOAD DUP2 MSTORE PUSH1 0x20 ADD SWAP2 POP DUP1 MLOAD SWAP1 PUSH1 0x20 ADD SWAP1 DUP1 DUP4 DUP4 PUSH1 0x0 JUMPDEST DUP4 DUP2 LT ISZERO PUSH2 0x23E6 JUMPI DUP2 DUP2 ADD MLOAD DUP4 DUP3 ADD MSTORE PUSH1 0x20 ADD PUSH2 0x23CE JUMP JUMPDEST POP POP POP POP SWAP1 POP SWAP1 DUP2 ADD SWAP1 PUSH1 0x1F AND DUP1 ISZERO PUSH2 0x2413 JUMPI DUP1 DUP3 SUB DUP1 MLOAD PUSH1 0x1 DUP4 PUSH1 0x20 SUB PUSH2 0x100 EXP SUB NOT AND DUP2 MSTORE PUSH1 0x20 ADD SWAP2 POP JUMPDEST POP SWAP5 POP POP POP POP POP PUSH1 0x20 PUSH1 0x40 MLOAD DUP1 DUP4 SUB DUP2 PUSH1 0x0 DUP8 DUP1 EXTCODESIZE ISZERO DUP1 ISZERO PUSH2 0x2434 JUMPI PUSH1 0x0 DUP1 REVERT JUMPDEST POP GAS CALL ISZERO DUP1 ISZERO PUSH2 0x2448 JUMPI RETURNDATASIZE PUSH1 0x0 DUP1 RETURNDATACOPY RETURNDATASIZE PUSH1 0x0 REVERT JUMPDEST POP POP POP POP PUSH1 0x40 MLOAD RETURNDATASIZE PUSH1 0x20 DUP2 LT ISZERO PUSH2 0x245E JUMPI PUSH1 0x0 DUP1 REVERT JUMPDEST POP MLOAD PUSH2 0x249B JUMPI PUSH1 0x40 MLOAD PUSH3 0x461BCD PUSH1 0xE5 SHL DUP2 MSTORE PUSH1 0x4 ADD DUP1 DUP1 PUSH1 0x20 ADD DUP3 DUP2 SUB DUP3 MSTORE PUSH1 0x23 DUP2 MSTORE PUSH1 0x20 ADD DUP1 PUSH2 0x2F11 PUSH1 0x23 SWAP2 CODECOPY PUSH1 0x40 ADD SWAP2 POP POP PUSH1 0x40 MLOAD DUP1 SWAP2 SUB SWAP1 REVERT JUMPDEST POP PUSH1 0xC DUP1 SLOAD PUSH1 0x1 ADD SWAP1 SSTORE SWAP6 SWAP5 POP POP POP POP POP JUMP JUMPDEST PUSH2 0x24B6 PUSH2 0x2763 JUMP JUMPDEST PUSH2 0xA10 DUP4 DUP5 PUSH1 0x0 ADD MLOAD MLOAD DUP5 PUSH2 0x258B JUMP JUMPDEST PUSH2 0x24CE PUSH2 0x2763 JUMP JUMPDEST PUSH2 0x1F39 DUP5 DUP6 PUSH1 0x0 ADD MLOAD MLOAD DUP6 DUP6 PUSH2 0x25D6 JUMP JUMPDEST PUSH2 0x24E7 PUSH2 0x2763 JUMP JUMPDEST DUP3 MLOAD DUP3 GT ISZERO PUSH2 0x24F5 JUMPI PUSH1 0x0 DUP1 REVERT JUMPDEST DUP5 PUSH1 0x20 ADD MLOAD DUP3 DUP6 ADD GT ISZERO PUSH2 0x251F JUMPI PUSH2 0x251F DUP6 PUSH2 0x2517 DUP8 PUSH1 0x20 ADD MLOAD DUP8 DUP7 ADD PUSH2 0x2634 JUMP JUMPDEST PUSH1 0x2 MUL PUSH2 0x264B JUMP JUMPDEST PUSH1 0x0 DUP1 DUP7 MLOAD DUP1 MLOAD DUP8 PUSH1 0x20 DUP4 ADD ADD SWAP4 POP DUP1 DUP9 DUP8 ADD GT ISZERO PUSH2 0x253E JUMPI DUP8 DUP7 ADD DUP3 MSTORE JUMPDEST POP POP POP PUSH1 0x20 DUP5 ADD JUMPDEST PUSH1 0x20 DUP5 LT PUSH2 0x2565 JUMPI DUP1 MLOAD DUP3 MSTORE PUSH1 0x1F NOT SWAP1 SWAP4 ADD SWAP3 PUSH1 0x20 SWAP2 DUP3 ADD SWAP2 ADD PUSH2 0x2546 JUMP JUMPDEST MLOAD DUP2 MLOAD PUSH1 0x0 NOT PUSH1 0x20 DUP7 SWAP1 SUB PUSH2 0x100 EXP ADD SWAP1 DUP2 AND SWAP1 NOT SWAP2 SWAP1 SWAP2 AND OR SWAP1 MSTORE POP DUP4 SWAP5 SWAP4 POP POP POP POP JUMP JUMPDEST PUSH2 0x2593 PUSH2 0x2763 JUMP JUMPDEST DUP4 PUSH1 0x20 ADD MLOAD DUP4 LT PUSH2 0x25AF JUMPI PUSH2 0x25AF DUP5 DUP6 PUSH1 0x20 ADD MLOAD PUSH1 0x2 MUL PUSH2 0x264B JUMP JUMPDEST DUP4 MLOAD DUP1 MLOAD PUSH1 0x20 DUP6 DUP4 ADD ADD DUP5 DUP2 MSTORE8 POP DUP1 DUP6 EQ ISZERO PUSH2 0x25CC JUMPI PUSH1 0x1 DUP2 ADD DUP3 MSTORE JUMPDEST POP SWAP4 SWAP5 SWAP4 POP POP POP POP JUMP JUMPDEST PUSH2 0x25DE PUSH2 0x2763 JUMP JUMPDEST DUP5 PUSH1 0x20 ADD MLOAD DUP5 DUP4 ADD GT ISZERO PUSH2 0x25FB JUMPI PUSH2 0x25FB DUP6 DUP6 DUP5 ADD PUSH1 0x2 MUL PUSH2 0x264B JUMP JUMPDEST PUSH1 0x0 PUSH1 0x1 DUP4 PUSH2 0x100 EXP SUB SWAP1 POP DUP6 MLOAD DUP4 DUP7 DUP3 ADD ADD DUP6 DUP4 NOT DUP3 MLOAD AND OR DUP2 MSTORE POP DUP1 MLOAD DUP5 DUP8 ADD GT ISZERO PUSH2 0x2629 JUMPI DUP4 DUP7 ADD DUP2 MSTORE JUMPDEST POP SWAP5 SWAP6 SWAP5 POP POP POP POP POP JUMP JUMPDEST PUSH1 0x0 DUP2 DUP4 GT ISZERO PUSH2 0x2645 JUMPI POP DUP2 PUSH2 0x5B9 JUMP JUMPDEST POP SWAP2 SWAP1 POP JUMP JUMPDEST DUP2 MLOAD PUSH2 0x2657 DUP4 DUP4 PUSH2 0x2051 JUMP JUMPDEST POP PUSH2 0x70C DUP4 DUP3 PUSH2 0x21A0 JUMP JUMPDEST POP DUP1 SLOAD PUSH1 0x1 DUP2 PUSH1 0x1 AND ISZERO PUSH2 0x100 MUL SUB AND PUSH1 0x2 SWAP1 DIV PUSH1 0x0 DUP3 SSTORE DUP1 PUSH1 0x1F LT PUSH2 0x2688 JUMPI POP PUSH2 0x9F5 JUMP JUMPDEST PUSH1 0x1F ADD PUSH1 0x20 SWAP1 DIV SWAP1 PUSH1 0x0 MSTORE PUSH1 0x20 PUSH1 0x0 KECCAK256 SWAP1 DUP2 ADD SWAP1 PUSH2 0x9F5 SWAP2 SWAP1 PUSH2 0x277D JUMP JUMPDEST DUP3 DUP1 SLOAD PUSH1 0x1 DUP2 PUSH1 0x1 AND ISZERO PUSH2 0x100 MUL SUB AND PUSH1 0x2 SWAP1 DIV SWAP1 PUSH1 0x0 MSTORE PUSH1 0x20 PUSH1 0x0 KECCAK256 SWAP1 PUSH1 0x1F ADD PUSH1 0x20 SWAP1 DIV DUP2 ADD SWAP3 DUP3 PUSH2 0x26DC JUMPI PUSH1 0x0 DUP6 SSTORE PUSH2 0x2722 JUMP JUMPDEST DUP3 PUSH1 0x1F LT PUSH2 0x26F5 JUMPI DUP3 DUP1 ADD PUSH1 0xFF NOT DUP3 CALLDATALOAD AND OR DUP6 SSTORE PUSH2 0x2722 JUMP JUMPDEST DUP3 DUP1 ADD PUSH1 0x1 ADD DUP6 SSTORE DUP3 ISZERO PUSH2 0x2722 JUMPI SWAP2 DUP3 ADD JUMPDEST DUP3 DUP2 GT ISZERO PUSH2 0x2722 JUMPI DUP3 CALLDATALOAD DUP3 SSTORE SWAP2 PUSH1 0x20 ADD SWAP2 SWAP1 PUSH1 0x1 ADD SWAP1 PUSH2 0x2707 JUMP JUMPDEST POP PUSH2 0xE42 SWAP3 SWAP2 POP PUSH2 0x277D JUMP JUMPDEST PUSH1 0x40 DUP1 MLOAD PUSH1 0xA0 DUP2 ADD DUP3 MSTORE PUSH1 0x0 DUP1 DUP3 MSTORE PUSH1 0x20 DUP3 ADD DUP2 SWAP1 MSTORE SWAP2 DUP2 ADD DUP3 SWAP1 MSTORE PUSH1 0x60 DUP2 ADD SWAP2 SWAP1 SWAP2 MSTORE PUSH1 0x80 DUP2 ADD PUSH2 0x275E PUSH2 0x2763 JUMP JUMPDEST SWAP1 MSTORE SWAP1 JUMP JUMPDEST PUSH1 0x40 MLOAD DUP1 PUSH1 0x40 ADD PUSH1 0x40 MSTORE DUP1 PUSH1 0x60 DUP2 MSTORE PUSH1 0x20 ADD PUSH1 0x0 DUP2 MSTORE POP SWAP1 JUMP JUMPDEST JUMPDEST DUP1 DUP3 GT ISZERO PUSH2 0xE42 JUMPI PUSH1 0x0 DUP2 SSTORE PUSH1 0x1 ADD PUSH2 0x277E JUMP JUMPDEST DUP1 CALLDATALOAD PUSH1 0x1 PUSH1 0x1 PUSH1 0xA0 SHL SUB DUP2 AND DUP2 EQ PUSH2 0x436 JUMPI PUSH1 0x0 DUP1 REVERT JUMPDEST DUP1 MLOAD DUP1 ISZERO ISZERO DUP2 EQ PUSH2 0x436 JUMPI PUSH1 0x0 DUP1 REVERT JUMPDEST PUSH1 0x0 DUP1 DUP4 PUSH1 0x1F DUP5 ADD SLT PUSH2 0x27CA JUMPI DUP2 DUP3 REVERT JUMPDEST POP DUP2 CALLDATALOAD PUSH8 0xFFFFFFFFFFFFFFFF DUP2 GT ISZERO PUSH2 0x27E1 JUMPI DUP2 DUP3 REVERT JUMPDEST PUSH1 0x20 DUP4 ADD SWAP2 POP DUP4 PUSH1 0x20 DUP3 DUP6 ADD ADD GT ISZERO PUSH2 0x27F9 JUMPI PUSH1 0x0 DUP1 REVERT JUMPDEST SWAP3 POP SWAP3 SWAP1 POP JUMP JUMPDEST PUSH1 0x0 DUP3 PUSH1 0x1F DUP4 ADD SLT PUSH2 0x2810 JUMPI DUP1 DUP2 REVERT JUMPDEST DUP2 MLOAD PUSH2 0x2823 PUSH2 0x281E DUP3 PUSH2 0x2E71 JUMP JUMPDEST PUSH2 0x2E4D JUMP JUMPDEST DUP2 DUP2 MSTORE DUP5 PUSH1 0x20 DUP4 DUP7 ADD ADD GT ISZERO PUSH2 0x2837 JUMPI DUP3 DUP4 REVERT JUMPDEST PUSH2 0x1F39 DUP3 PUSH1 0x20 DUP4 ADD PUSH1 0x20 DUP8 ADD PUSH2 0x2E93 JUMP JUMPDEST PUSH1 0x0 PUSH1 0x20 DUP3 DUP5 SUB SLT ISZERO PUSH2 0x2859 JUMPI DUP1 DUP2 REVERT JUMPDEST PUSH2 0xA10 DUP3 PUSH2 0x2792 JUMP JUMPDEST PUSH1 0x0 DUP1 PUSH1 0x0 PUSH1 0x60 DUP5 DUP7 SUB SLT ISZERO PUSH2 0x2876 JUMPI DUP2 DUP3 REVERT JUMPDEST PUSH2 0x287F DUP5 PUSH2 0x2792 JUMP JUMPDEST SWAP3 POP PUSH2 0x288D PUSH1 0x20 DUP6 ADD PUSH2 0x2792 JUMP JUMPDEST SWAP2 POP PUSH1 0x40 DUP5 ADD CALLDATALOAD SWAP1 POP SWAP3 POP SWAP3 POP SWAP3 JUMP JUMPDEST PUSH1 0x0 PUSH1 0x20 DUP3 DUP5 SUB SLT ISZERO PUSH2 0x28AE JUMPI DUP1 DUP2 REVERT JUMPDEST PUSH2 0xA10 DUP3 PUSH2 0x27A9 JUMP JUMPDEST PUSH1 0x0 PUSH1 0x20 DUP3 DUP5 SUB SLT ISZERO PUSH2 0x28C8 JUMPI DUP1 DUP2 REVERT JUMPDEST POP CALLDATALOAD SWAP2 SWAP1 POP JUMP JUMPDEST PUSH1 0x0 DUP1 PUSH1 0x40 DUP4 DUP6 SUB SLT ISZERO PUSH2 0x28E1 JUMPI DUP2 DUP3 REVERT JUMPDEST DUP3 CALLDATALOAD SWAP2 POP PUSH2 0x28F1 PUSH1 0x20 DUP5 ADD PUSH2 0x2792 JUMP JUMPDEST SWAP1 POP SWAP3 POP SWAP3 SWAP1 POP JUMP JUMPDEST PUSH1 0x0 DUP1 PUSH1 0x0 PUSH1 0x40 DUP5 DUP7 SUB SLT ISZERO PUSH2 0x290E JUMPI DUP3 DUP4 REVERT JUMPDEST DUP4 CALLDATALOAD SWAP3 POP PUSH1 0x20 DUP5 ADD CALLDATALOAD PUSH8 0xFFFFFFFFFFFFFFFF DUP2 GT ISZERO PUSH2 0x292B JUMPI DUP3 DUP4 REVERT JUMPDEST PUSH2 0x2937 DUP7 DUP3 DUP8 ADD PUSH2 0x27B9 JUMP JUMPDEST SWAP5 SWAP8 SWAP1 SWAP7 POP SWAP4 SWAP5 POP POP POP POP JUMP JUMPDEST PUSH1 0x0 DUP1 PUSH1 0x40 DUP4 DUP6 SUB SLT ISZERO PUSH2 0x2956 JUMPI DUP2 DUP3 REVERT JUMPDEST POP POP DUP1 CALLDATALOAD SWAP3 PUSH1 0x20 SWAP1 SWAP2 ADD CALLDATALOAD SWAP2 POP JUMP JUMPDEST PUSH1 0x0 DUP1 PUSH1 0x20 DUP4 DUP6 SUB SLT ISZERO PUSH2 0x2977 JUMPI DUP2 DUP3 REVERT JUMPDEST DUP3 CALLDATALOAD PUSH8 0xFFFFFFFFFFFFFFFF DUP2 GT ISZERO PUSH2 0x298D JUMPI DUP3 DUP4 REVERT JUMPDEST PUSH2 0x2999 DUP6 DUP3 DUP7 ADD PUSH2 0x27B9 JUMP JUMPDEST SWAP1 SWAP7 SWAP1 SWAP6 POP SWAP4 POP POP POP POP JUMP JUMPDEST PUSH1 0x0 PUSH1 0x20 DUP3 DUP5 SUB SLT ISZERO PUSH2 0x29B6 JUMPI DUP1 DUP2 REVERT JUMPDEST DUP2 CALLDATALOAD PUSH8 0xFFFFFFFFFFFFFFFF DUP2 GT ISZERO PUSH2 0x29CC JUMPI DUP2 DUP3 REVERT JUMPDEST DUP3 ADD PUSH1 0x1F DUP2 ADD DUP5 SGT PUSH2 0x29DC JUMPI DUP2 DUP3 REVERT JUMPDEST DUP1 CALLDATALOAD PUSH2 0x29EA PUSH2 0x281E DUP3 PUSH2 0x2E71 JUMP JUMPDEST DUP2 DUP2 MSTORE DUP6 PUSH1 0x20 DUP4 DUP6 ADD ADD GT ISZERO PUSH2 0x29FE JUMPI DUP4 DUP5 REVERT JUMPDEST DUP2 PUSH1 0x20 DUP5 ADD PUSH1 0x20 DUP4 ADD CALLDATACOPY SWAP1 DUP2 ADD PUSH1 0x20 ADD SWAP3 SWAP1 SWAP3 MSTORE POP SWAP3 SWAP2 POP POP JUMP JUMPDEST PUSH1 0x0 DUP1 PUSH1 0x0 DUP1 PUSH1 0x0 PUSH1 0xA0 DUP7 DUP9 SUB SLT ISZERO PUSH2 0x2A30 JUMPI DUP1 DUP2 REVERT JUMPDEST DUP6 MLOAD PUSH8 0xFFFFFFFFFFFFFFFF DUP1 DUP3 GT ISZERO PUSH2 0x2A47 JUMPI DUP3 DUP4 REVERT JUMPDEST PUSH2 0x2A53 DUP10 DUP4 DUP11 ADD PUSH2 0x2800 JUMP JUMPDEST SWAP7 POP PUSH1 0x20 DUP9 ADD MLOAD SWAP2 POP DUP1 DUP3 GT ISZERO PUSH2 0x2A68 JUMPI DUP3 DUP4 REVERT JUMPDEST PUSH2 0x2A74 DUP10 DUP4 DUP11 ADD PUSH2 0x2800 JUMP JUMPDEST SWAP6 POP PUSH1 0x40 DUP9 ADD MLOAD SWAP2 POP DUP1 DUP3 GT ISZERO PUSH2 0x2A89 JUMPI DUP3 DUP4 REVERT JUMPDEST POP PUSH2 0x2A96 DUP9 DUP3 DUP10 ADD PUSH2 0x2800 JUMP JUMPDEST SWAP4 POP POP PUSH1 0x60 DUP7 ADD MLOAD SWAP2 POP PUSH2 0x2AAC PUSH1 0x80 DUP8 ADD PUSH2 0x27A9 JUMP JUMPDEST SWAP1 POP SWAP3 SWAP6 POP SWAP3 SWAP6 SWAP1 SWAP4 POP JUMP JUMPDEST PUSH1 0x0 PUSH1 0x20 DUP3 DUP5 SUB SLT ISZERO PUSH2 0x2AC9 JUMPI DUP1 DUP2 REVERT JUMPDEST POP MLOAD SWAP2 SWAP1 POP JUMP JUMPDEST PUSH1 0x0 DUP2 MLOAD DUP1 DUP5 MSTORE PUSH2 0x2AE8 DUP2 PUSH1 0x20 DUP7 ADD PUSH1 0x20 DUP7 ADD PUSH2 0x2E93 JUMP JUMPDEST PUSH1 0x1F ADD PUSH1 0x1F NOT AND SWAP3 SWAP1 SWAP3 ADD PUSH1 0x20 ADD SWAP3 SWAP2 POP POP JUMP JUMPDEST PUSH1 0x60 SWAP2 SWAP1 SWAP2 SHL PUSH12 0xFFFFFFFFFFFFFFFFFFFFFFFF NOT AND DUP2 MSTORE PUSH1 0x14 ADD SWAP1 JUMP JUMPDEST PUSH1 0x0 DUP3 DUP5 DUP4 CALLDATACOPY SWAP2 ADD SWAP1 DUP2 MSTORE SWAP2 SWAP1 POP JUMP JUMPDEST PUSH1 0x0 DUP3 MLOAD PUSH2 0x2B3B DUP2 DUP5 PUSH1 0x20 DUP8 ADD PUSH2 0x2E93 JUMP JUMPDEST SWAP2 SWAP1 SWAP2 ADD SWAP3 SWAP2 POP POP JUMP JUMPDEST PUSH1 0x1 PUSH1 0x1 PUSH1 0xA0 SHL SUB SWAP2 SWAP1 SWAP2 AND DUP2 MSTORE PUSH1 0x20 ADD SWAP1 JUMP JUMPDEST PUSH1 0x1 PUSH1 0x1 PUSH1 0xA0 SHL SUB SWAP3 SWAP1 SWAP3 AND DUP3 MSTORE PUSH1 0x20 DUP3 ADD MSTORE PUSH1 0x40 ADD SWAP1 JUMP JUMPDEST SWAP1 ISZERO ISZERO DUP2 MSTORE PUSH1 0x20 ADD SWAP1 JUMP JUMPDEST SWAP1 DUP2 MSTORE PUSH1 0x20 ADD SWAP1 JUMP JUMPDEST PUSH1 0x0 DUP7 DUP3 MSTORE PUSH1 0xA0 PUSH1 0x20 DUP4 ADD MSTORE PUSH2 0x2B9F PUSH1 0xA0 DUP4 ADD DUP8 PUSH2 0x2AD0 JUMP JUMPDEST DUP3 DUP2 SUB PUSH1 0x40 DUP5 ADD MSTORE PUSH2 0x2BB1 DUP2 DUP8 PUSH2 0x2AD0 JUMP JUMPDEST SWAP1 POP DUP5 ISZERO ISZERO PUSH1 0x60 DUP5 ADD MSTORE DUP3 DUP2 SUB PUSH1 0x80 DUP5 ADD MSTORE PUSH2 0x2BCD DUP2 DUP6 PUSH2 0x2AD0 JUMP JUMPDEST SWAP9 SWAP8 POP POP POP POP POP POP POP POP JUMP JUMPDEST PUSH1 0x0 PUSH1 0x20 DUP3 MSTORE DUP3 PUSH1 0x20 DUP4 ADD MSTORE DUP3 DUP5 PUSH1 0x40 DUP5 ADD CALLDATACOPY DUP2 DUP4 ADD PUSH1 0x40 SWAP1 DUP2 ADD SWAP2 SWAP1 SWAP2 MSTORE PUSH1 0x1F SWAP1 SWAP3 ADD PUSH1 0x1F NOT AND ADD ADD SWAP2 SWAP1 POP JUMP JUMPDEST PUSH1 0x0 PUSH1 0x20 DUP3 MSTORE PUSH2 0xA10 PUSH1 0x20 DUP4 ADD DUP5 PUSH2 0x2AD0 JUMP JUMPDEST PUSH1 0x0 PUSH1 0xC0 DUP3 MSTORE PUSH2 0x2C2E PUSH1 0xC0 DUP4 ADD DUP10 PUSH2 0x2AD0 JUMP JUMPDEST DUP3 DUP2 SUB PUSH1 0x20 DUP5 ADD MSTORE PUSH2 0x2C40 DUP2 DUP10 PUSH2 0x2AD0 JUMP JUMPDEST SWAP1 POP DUP3 DUP2 SUB PUSH1 0x40 DUP5 ADD MSTORE PUSH2 0x2C54 DUP2 DUP9 PUSH2 0x2AD0 JUMP JUMPDEST SWAP1 POP DUP3 DUP2 SUB PUSH1 0x60 DUP5 ADD MSTORE PUSH2 0x2C68 DUP2 DUP8 PUSH2 0x2AD0 JUMP JUMPDEST PUSH1 0x80 DUP5 ADD SWAP6 SWAP1 SWAP6 MSTORE POP POP SWAP1 ISZERO ISZERO PUSH1 0xA0 SWAP1 SWAP2 ADD MSTORE SWAP5 SWAP4 POP POP POP POP JUMP JUMPDEST PUSH1 0x0 PUSH1 0x40 DUP3 MSTORE PUSH2 0x2C96 PUSH1 0x40 DUP4 ADD DUP5 PUSH2 0x2AD0 JUMP JUMPDEST DUP3 DUP2 SUB PUSH1 0x20 SWAP4 DUP5 ADD MSTORE SWAP1 DUP2 MSTORE ADD SWAP2 SWAP1 POP JUMP JUMPDEST PUSH1 0x20 DUP1 DUP3 MSTORE PUSH1 0x1A SWAP1 DUP3 ADD MSTORE PUSH32 0x564552494649434154494F4E5F4841534E545F53544152544544000000000000 PUSH1 0x40 DUP3 ADD MSTORE PUSH1 0x60 ADD SWAP1 JUMP JUMPDEST PUSH1 0x20 DUP1 DUP3 MSTORE PUSH1 0x18 SWAP1 DUP3 ADD MSTORE PUSH32 0x414444524553535F414C52454144595F56455249464945440000000000000000 PUSH1 0x40 DUP3 ADD MSTORE PUSH1 0x60 ADD SWAP1 JUMP JUMPDEST PUSH1 0x20 DUP1 DUP3 MSTORE PUSH1 0xC SWAP1 DUP3 ADD MSTORE PUSH32 0x4D495353494E475F524F4C450000000000000000000000000000000000000000 PUSH1 0x40 DUP3 ADD MSTORE PUSH1 0x60 ADD SWAP1 JUMP JUMPDEST PUSH1 0x20 DUP1 DUP3 MSTORE PUSH1 0x21 SWAP1 DUP3 ADD MSTORE PUSH32 0x416D61434C436C69656E743A205265717565737420566572696669636174696F PUSH1 0x40 DUP3 ADD MSTORE PUSH32 0x6E00000000000000000000000000000000000000000000000000000000000000 PUSH1 0x60 DUP3 ADD MSTORE PUSH1 0x80 ADD SWAP1 JUMP JUMPDEST PUSH1 0x20 DUP1 DUP3 MSTORE DUP2 DUP2 ADD MSTORE PUSH32 0x545749545445525F555345524E414D455F414C52454144595F434C41494D4544 PUSH1 0x40 DUP3 ADD MSTORE PUSH1 0x60 ADD SWAP1 JUMP JUMPDEST PUSH1 0x20 DUP1 DUP3 MSTORE PUSH1 0x15 SWAP1 DUP3 ADD MSTORE PUSH32 0x506C6561736520636C61696D537562446F6D61696E0000000000000000000000 PUSH1 0x40 DUP3 ADD MSTORE PUSH1 0x60 ADD SWAP1 JUMP JUMPDEST PUSH1 0x20 DUP1 DUP3 MSTORE PUSH1 0x12 SWAP1 DUP3 ADD MSTORE PUSH32 0x554E41424C455F544F5F5452414E534645520000000000000000000000000000 PUSH1 0x40 DUP3 ADD MSTORE PUSH1 0x60 ADD SWAP1 JUMP JUMPDEST PUSH1 0x40 MLOAD DUP2 DUP2 ADD PUSH8 0xFFFFFFFFFFFFFFFF DUP2 GT DUP3 DUP3 LT OR ISZERO PUSH2 0x2E69 JUMPI INVALID JUMPDEST PUSH1 0x40 MSTORE SWAP2 SWAP1 POP JUMP JUMPDEST PUSH1 0x0 PUSH8 0xFFFFFFFFFFFFFFFF DUP3 GT ISZERO PUSH2 0x2E85 JUMPI INVALID JUMPDEST POP PUSH1 0x1F ADD PUSH1 0x1F NOT AND PUSH1 0x20 ADD SWAP1 JUMP JUMPDEST PUSH1 0x0 JUMPDEST DUP4 DUP2 LT ISZERO PUSH2 0x2EAE JUMPI DUP2 DUP2 ADD MLOAD DUP4 DUP3 ADD MSTORE PUSH1 0x20 ADD PUSH2 0x2E96 JUMP JUMPDEST DUP4 DUP2 GT ISZERO PUSH2 0x70C JUMPI POP POP PUSH1 0x0 SWAP2 ADD MSTORE JUMP INVALID GASLIMIT PUSH15 0x756D657261626C655365743A20696E PUSH5 0x6578206F75 PUSH21 0x206F6620626F756E6473416363657373436F6E7472 PUSH16 0x6C3A2073656E646572206D7573742062 PUSH6 0x20616E206164 PUSH14 0x696E20746F206772616E74756E61 PUSH3 0x6C6520 PUSH21 0x6F207472616E73666572416E6443616C6C20746F20 PUSH16 0x7261636C65416363657373436F6E7472 PUSH16 0x6C3A2073656E646572206D7573742062 PUSH6 0x20616E206164 PUSH14 0x696E20746F207265766F6B65496E PUSH10 0x7469616C697A61626C65 GASPRICE KECCAK256 PUSH4 0x6F6E7472 PUSH2 0x6374 KECCAK256 PUSH10 0x7320616C726561647920 PUSH10 0x6E697469616C697A6564 MSTORE8 PUSH16 0x75726365206D75737420626520746865 KECCAK256 PUSH16 0x7261636C65206F662074686520726571 PUSH22 0x657374416363657373436F6E74726F6C3A2063616E20 PUSH16 0x6E6C792072656E6F756E636520726F6C PUSH6 0x7320666F7220 PUSH20 0x656C66A264697066735822122073B909136FE331 ADDMOD 0x25 ADDRESS PUSH15 0xBF6E0239FF564A4ECD90C88803DF7C 0xE2 0x5F PUSH25 0x6873364736F6C634300070600330000000000000000000000 "
		},
		"gasEstimates": {
			"creation": {
				"codeDepositCost": "2463600",
				"executionCost": "22656",
				"totalCost": "2486256"
			},
			"external": {
				"DEFAULT_ADMIN_ROLE()": "340",
				"EMPTY_BYTES32()": "274",
				"GOVERNANCE_ROLE()": "294",
				"addressRequestIDs(bytes32)": "1325",
				"balance()": "infinite",
				"cancelRequest()": "infinite",
				"deleteVerification(address)": "infinite",
				"expiration()": "1096",
				"fee()": "1139",
				"fulfillBytes(bytes32,bytes)": "infinite",
				"getEncodedData()": "infinite",
				"getRoleAdmin(bytes32)": "1233",
				"getRoleMember(bytes32,uint256)": "infinite",
				"getRoleMemberCount(bytes32)": "infinite",
				"grantRole(bytes32,address)": "infinite",
				"hasRole(bytes32,address)": "infinite",
				"initialize(address,address,bytes32)": "infinite",
				"jobId()": "1139",
				"keccakHash(string)": "infinite",
				"keccakHashBytes(bytes)": "infinite",
				"oracle()": "1159",
				"renounceRole(bytes32,address)": "infinite",
				"requestTwitterVerification(string)": "infinite",
				"results(address)": "infinite",
				"revokeRole(bytes32,address)": "infinite",
				"setJobId(bytes32)": "infinite",
				"setOracle(address)": "infinite",
				"twitterIdToAddress(uint256)": "1259",
				"twitterUsernameToAddress(bytes32)": "1303",
				"userDetailsTwitter(address)": "infinite",
				"withdrawLink(address)": "infinite"
			},
			"internal": {
				"_afterVerification(address,bytes calldata)": "infinite",
				"_setTwitterUsernameToAddress(string memory,address)": "infinite",
				"_verificationStarted(bytes32)": "infinite",
				"decodeData(bytes memory)": "infinite",
				"isPending(bytes32)": "infinite"
			}
		},
		"methodIdentifiers": {
			"DEFAULT_ADMIN_ROLE()": "a217fddf",
			"EMPTY_BYTES32()": "3d14319d",
			"GOVERNANCE_ROLE()": "f36c8f5c",
			"addressRequestIDs(bytes32)": "73d160a2",
			"balance()": "b69ef8a8",
			"cancelRequest()": "851b16f5",
			"deleteVerification(address)": "b227f3be",
			"expiration()": "4665096d",
			"fee()": "ddca3f43",
			"fulfillBytes(bytes32,bytes)": "c2fb8523",
			"getEncodedData()": "acab1aca",
			"getRoleAdmin(bytes32)": "248a9ca3",
			"getRoleMember(bytes32,uint256)": "9010d07c",
			"getRoleMemberCount(bytes32)": "ca15c873",
			"grantRole(bytes32,address)": "2f2ff15d",
			"hasRole(bytes32,address)": "91d14854",
			"initialize(address,address,bytes32)": "6133f985",
			"jobId()": "c2939d97",
			"keccakHash(string)": "7400f4cc",
			"keccakHashBytes(bytes)": "565a2c4a",
			"oracle()": "7dc0d1d0",
			"renounceRole(bytes32,address)": "36568abe",
			"requestTwitterVerification(string)": "f7d3b6e5",
			"results(address)": "ef378f62",
			"revokeRole(bytes32,address)": "d547741f",
			"setJobId(bytes32)": "508954f8",
			"setOracle(address)": "7adbf973",
			"twitterIdToAddress(uint256)": "536562bb",
			"twitterUsernameToAddress(bytes32)": "4f742837",
			"userDetailsTwitter(address)": "fe9efb2a",
			"withdrawLink(address)": "90e9ca7f"
		}
	},
	"abi": [
		{
			"anonymous": false,
			"inputs": [
				{
					"indexed": true,
					"internalType": "bytes32",
					"name": "id",
					"type": "bytes32"
				}
			],
			"name": "ChainlinkCancelled",
			"type": "event"
		},
		{
			"anonymous": false,
			"inputs": [
				{
					"indexed": true,
					"internalType": "bytes32",
					"name": "id",
					"type": "bytes32"
				}
			],
			"name": "ChainlinkFulfilled",
			"type": "event"
		},
		{
			"anonymous": false,
			"inputs": [
				{
					"indexed": true,
					"internalType": "bytes32",
					"name": "id",
					"type": "bytes32"
				}
			],
			"name": "ChainlinkRequested",
			"type": "event"
		},
		{
			"anonymous": false,
			"inputs": [
				{
					"indexed": true,
					"internalType": "address",
					"name": "_address",
					"type": "address"
				}
			],
			"name": "DifferentSubDomainAllowed",
			"type": "event"
		},
		{
			"anonymous": false,
			"inputs": [
				{
					"indexed": true,
					"internalType": "address",
					"name": "useraddress",
					"type": "address"
				},
				{
					"indexed": true,
					"internalType": "bytes32",
					"name": "nodehash",
					"type": "bytes32"
				},
				{
					"indexed": true,
					"internalType": "uint256",
					"name": "twitterId",
					"type": "uint256"
				},
				{
					"indexed": false,
					"internalType": "string",
					"name": "twitterUsername",
					"type": "string"
				},
				{
					"indexed": false,
					"internalType": "string",
					"name": "label",
					"type": "string"
				}
			],
			"name": "DomainRegistered",
			"type": "event"
		},
		{
			"anonymous": false,
			"inputs": [
				{
					"indexed": true,
					"internalType": "address",
					"name": "_address",
					"type": "address"
				},
				{
					"indexed": false,
					"internalType": "bytes",
					"name": "data",
					"type": "bytes"
				}
			],
			"name": "RequestErrored",
			"type": "event"
		},
		{
			"anonymous": false,
			"inputs": [
				{
					"indexed": true,
					"internalType": "address",
					"name": "_address",
					"type": "address"
				},
				{
					"indexed": false,
					"internalType": "bytes",
					"name": "data",
					"type": "bytes"
				}
			],
			"name": "RequestFulfilled",
			"type": "event"
		},
		{
			"anonymous": false,
			"inputs": [
				{
					"indexed": true,
					"internalType": "bytes32",
					"name": "role",
					"type": "bytes32"
				},
				{
					"indexed": true,
					"internalType": "bytes32",
					"name": "previousAdminRole",
					"type": "bytes32"
				},
				{
					"indexed": true,
					"internalType": "bytes32",
					"name": "newAdminRole",
					"type": "bytes32"
				}
			],
			"name": "RoleAdminChanged",
			"type": "event"
		},
		{
			"anonymous": false,
			"inputs": [
				{
					"indexed": true,
					"internalType": "bytes32",
					"name": "role",
					"type": "bytes32"
				},
				{
					"indexed": true,
					"internalType": "address",
					"name": "account",
					"type": "address"
				},
				{
					"indexed": true,
					"internalType": "address",
					"name": "sender",
					"type": "address"
				}
			],
			"name": "RoleGranted",
			"type": "event"
		},
		{
			"anonymous": false,
			"inputs": [
				{
					"indexed": true,
					"internalType": "bytes32",
					"name": "role",
					"type": "bytes32"
				},
				{
					"indexed": true,
					"internalType": "address",
					"name": "account",
					"type": "address"
				},
				{
					"indexed": true,
					"internalType": "address",
					"name": "sender",
					"type": "address"
				}
			],
			"name": "RoleRevoked",
			"type": "event"
		},
		{
			"inputs": [],
			"name": "DEFAULT_ADMIN_ROLE",
			"outputs": [
				{
					"internalType": "bytes32",
					"name": "",
					"type": "bytes32"
				}
			],
			"stateMutability": "view",
			"type": "function"
		},
		{
			"inputs": [],
			"name": "EMPTY_BYTES32",
			"outputs": [
				{
					"internalType": "bytes32",
					"name": "",
					"type": "bytes32"
				}
			],
			"stateMutability": "view",
			"type": "function"
		},
		{
			"inputs": [],
			"name": "GOVERNANCE_ROLE",
			"outputs": [
				{
					"internalType": "bytes32",
					"name": "",
					"type": "bytes32"
				}
			],
			"stateMutability": "view",
			"type": "function"
		},
		{
			"inputs": [
				{
					"internalType": "bytes32",
					"name": "",
					"type": "bytes32"
				}
			],
			"name": "addressRequestIDs",
			"outputs": [
				{
					"internalType": "address",
					"name": "",
					"type": "address"
				}
			],
			"stateMutability": "view",
			"type": "function"
		},
		{
			"inputs": [],
			"name": "balance",
			"outputs": [
				{
					"internalType": "uint256",
					"name": "",
					"type": "uint256"
				}
			],
			"stateMutability": "view",
			"type": "function"
		},
		{
			"inputs": [],
			"name": "cancelRequest",
			"outputs": [],
			"stateMutability": "nonpayable",
			"type": "function"
		},
		{
			"inputs": [
				{
					"internalType": "address",
					"name": "_ethaddress",
					"type": "address"
				}
			],
			"name": "deleteVerification",
			"outputs": [],
			"stateMutability": "nonpayable",
			"type": "function"
		},
		{
			"inputs": [],
			"name": "expiration",
			"outputs": [
				{
					"internalType": "uint256",
					"name": "",
					"type": "uint256"
				}
			],
			"stateMutability": "view",
			"type": "function"
		},
		{
			"inputs": [],
			"name": "fee",
			"outputs": [
				{
					"internalType": "uint256",
					"name": "",
					"type": "uint256"
				}
			],
			"stateMutability": "view",
			"type": "function"
		},
		{
			"inputs": [
				{
					"internalType": "bytes32",
					"name": "_requestId",
					"type": "bytes32"
				},
				{
					"internalType": "bytes",
					"name": "bytesData",
					"type": "bytes"
				}
			],
			"name": "fulfillBytes",
			"outputs": [],
			"stateMutability": "nonpayable",
			"type": "function"
		},
		{
			"inputs": [],
			"name": "getEncodedData",
			"outputs": [
				{
					"internalType": "bytes",
					"name": "",
					"type": "bytes"
				}
			],
			"stateMutability": "view",
			"type": "function"
		},
		{
			"inputs": [
				{
					"internalType": "bytes32",
					"name": "role",
					"type": "bytes32"
				}
			],
			"name": "getRoleAdmin",
			"outputs": [
				{
					"internalType": "bytes32",
					"name": "",
					"type": "bytes32"
				}
			],
			"stateMutability": "view",
			"type": "function"
		},
		{
			"inputs": [
				{
					"internalType": "bytes32",
					"name": "role",
					"type": "bytes32"
				},
				{
					"internalType": "uint256",
					"name": "index",
					"type": "uint256"
				}
			],
			"name": "getRoleMember",
			"outputs": [
				{
					"internalType": "address",
					"name": "",
					"type": "address"
				}
			],
			"stateMutability": "view",
			"type": "function"
		},
		{
			"inputs": [
				{
					"internalType": "bytes32",
					"name": "role",
					"type": "bytes32"
				}
			],
			"name": "getRoleMemberCount",
			"outputs": [
				{
					"internalType": "uint256",
					"name": "",
					"type": "uint256"
				}
			],
			"stateMutability": "view",
			"type": "function"
		},
		{
			"inputs": [
				{
					"internalType": "bytes32",
					"name": "role",
					"type": "bytes32"
				},
				{
					"internalType": "address",
					"name": "account",
					"type": "address"
				}
			],
			"name": "grantRole",
			"outputs": [],
			"stateMutability": "nonpayable",
			"type": "function"
		},
		{
			"inputs": [
				{
					"internalType": "bytes32",
					"name": "role",
					"type": "bytes32"
				},
				{
					"internalType": "address",
					"name": "account",
					"type": "address"
				}
			],
			"name": "hasRole",
			"outputs": [
				{
					"internalType": "bool",
					"name": "",
					"type": "bool"
				}
			],
			"stateMutability": "view",
			"type": "function"
		},
		{
			"inputs": [
				{
					"internalType": "address",
					"name": "_owner",
					"type": "address"
				},
				{
					"internalType": "address",
					"name": "_oracle",
					"type": "address"
				},
				{
					"internalType": "bytes32",
					"name": "_jobId",
					"type": "bytes32"
				}
			],
			"name": "initialize",
			"outputs": [],
			"stateMutability": "nonpayable",
			"type": "function"
		},
		{
			"inputs": [],
			"name": "jobId",
			"outputs": [
				{
					"internalType": "bytes32",
					"name": "",
					"type": "bytes32"
				}
			],
			"stateMutability": "view",
			"type": "function"
		},
		{
			"inputs": [
				{
					"internalType": "string",
					"name": "_string",
					"type": "string"
				}
			],
			"name": "keccakHash",
			"outputs": [
				{
					"internalType": "bytes32",
					"name": "",
					"type": "bytes32"
				}
			],
			"stateMutability": "pure",
			"type": "function"
		},
		{
			"inputs": [
				{
					"internalType": "bytes",
					"name": "_string",
					"type": "bytes"
				}
			],
			"name": "keccakHashBytes",
			"outputs": [
				{
					"internalType": "bytes32",
					"name": "",
					"type": "bytes32"
				}
			],
			"stateMutability": "pure",
			"type": "function"
		},
		{
			"inputs": [],
			"name": "oracle",
			"outputs": [
				{
					"internalType": "address",
					"name": "",
					"type": "address"
				}
			],
			"stateMutability": "view",
			"type": "function"
		},
		{
			"inputs": [
				{
					"internalType": "bytes32",
					"name": "role",
					"type": "bytes32"
				},
				{
					"internalType": "address",
					"name": "account",
					"type": "address"
				}
			],
			"name": "renounceRole",
			"outputs": [],
			"stateMutability": "nonpayable",
			"type": "function"
		},
		{
			"inputs": [
				{
					"internalType": "string",
					"name": "_twitterUsername",
					"type": "string"
				}
			],
			"name": "requestTwitterVerification",
			"outputs": [
				{
					"internalType": "bytes32",
					"name": "",
					"type": "bytes32"
				}
			],
			"stateMutability": "nonpayable",
			"type": "function"
		},
		{
			"inputs": [
				{
					"internalType": "address",
					"name": "",
					"type": "address"
				}
			],
			"name": "results",
			"outputs": [
				{
					"internalType": "bytes32",
					"name": "reqID",
					"type": "bytes32"
				},
				{
					"internalType": "string",
					"name": "twitterUsername",
					"type": "string"
				},
				{
					"internalType": "string",
					"name": "label",
					"type": "string"
				},
				{
					"internalType": "bool",
					"name": "verifiedOnChain",
					"type": "bool"
				},
				{
					"internalType": "bytes",
					"name": "data",
					"type": "bytes"
				}
			],
			"stateMutability": "view",
			"type": "function"
		},
		{
			"inputs": [
				{
					"internalType": "bytes32",
					"name": "role",
					"type": "bytes32"
				},
				{
					"internalType": "address",
					"name": "account",
					"type": "address"
				}
			],
			"name": "revokeRole",
			"outputs": [],
			"stateMutability": "nonpayable",
			"type": "function"
		},
		{
			"inputs": [
				{
					"internalType": "bytes32",
					"name": "_jobId",
					"type": "bytes32"
				}
			],
			"name": "setJobId",
			"outputs": [],
			"stateMutability": "nonpayable",
			"type": "function"
		},
		{
			"inputs": [
				{
					"internalType": "address",
					"name": "_address",
					"type": "address"
				}
			],
			"name": "setOracle",
			"outputs": [],
			"stateMutability": "nonpayable",
			"type": "function"
		},
		{
			"inputs": [
				{
					"internalType": "uint256",
					"name": "",
					"type": "uint256"
				}
			],
			"name": "twitterIdToAddress",
			"outputs": [
				{
					"internalType": "address",
					"name": "",
					"type": "address"
				}
			],
			"stateMutability": "view",
			"type": "function"
		},
		{
			"inputs": [
				{
					"internalType": "bytes32",
					"name": "",
					"type": "bytes32"
				}
			],
			"name": "twitterUsernameToAddress",
			"outputs": [
				{
					"internalType": "address",
					"name": "",
					"type": "address"
				}
			],
			"stateMutability": "view",
			"type": "function"
		},
		{
			"inputs": [
				{
					"internalType": "address",
					"name": "_address",
					"type": "address"
				}
			],
			"name": "userDetailsTwitter",
			"outputs": [
				{
					"internalType": "string",
					"name": "",
					"type": "string"
				},
				{
					"internalType": "string",
					"name": "",
					"type": "string"
				},
				{
					"internalType": "string",
					"name": "",
					"type": "string"
				},
				{
					"internalType": "string",
					"name": "",
					"type": "string"
				},
				{
					"internalType": "uint256",
					"name": "",
					"type": "uint256"
				},
				{
					"internalType": "bool",
					"name": "",
					"type": "bool"
				}
			],
			"stateMutability": "view",
			"type": "function"
		},
		{
			"inputs": [
				{
					"internalType": "address",
					"name": "_address",
					"type": "address"
				}
			],
			"name": "withdrawLink",
			"outputs": [],
			"stateMutability": "nonpayable",
			"type": "function"
		}
	]
}